{
	"contracts/FundMe.sol": {
		"FundMe": {
			"abi": [
				{
					"inputs": [],
					"stateMutability": "nonpayable",
					"type": "constructor"
				},
				{
					"inputs": [],
					"name": "MINIMUM_FUND_USD",
					"outputs": [
						{
							"internalType": "uint256",
							"name": "",
							"type": "uint256"
						}
					],
					"stateMutability": "view",
					"type": "function"
				},
				{
					"inputs": [
						{
							"internalType": "address",
							"name": "",
							"type": "address"
						}
					],
					"name": "addressToAmountFunded",
					"outputs": [
						{
							"internalType": "uint256",
							"name": "",
							"type": "uint256"
						}
					],
					"stateMutability": "view",
					"type": "function"
				},
				{
					"inputs": [],
					"name": "fund",
					"outputs": [],
					"stateMutability": "payable",
					"type": "function"
				},
				{
					"inputs": [
						{
							"internalType": "uint256",
							"name": "",
							"type": "uint256"
						}
					],
					"name": "funders",
					"outputs": [
						{
							"internalType": "address",
							"name": "",
							"type": "address"
						}
					],
					"stateMutability": "view",
					"type": "function"
				},
				{
					"inputs": [],
					"name": "i_owner",
					"outputs": [
						{
							"internalType": "address",
							"name": "",
							"type": "address"
						}
					],
					"stateMutability": "view",
					"type": "function"
				},
				{
					"inputs": [],
					"name": "withdraw",
					"outputs": [],
					"stateMutability": "nonpayable",
					"type": "function"
				}
			],
			"devdoc": {
				"kind": "dev",
				"methods": {},
				"version": 1
			},
			"evm": {
				"assembly": "    /* \"contracts/FundMe.sol\":94:1205  contract FundMe {... */\n  mstore(0x40, 0xa0)\n    /* \"contracts/FundMe.sol\":353:453  constructor() {... */\n  callvalue\n  dup1\n  iszero\n  tag_1\n  jumpi\n  0x00\n  dup1\n  revert\ntag_1:\n  pop\n    /* \"contracts/FundMe.sol\":388:398  msg.sender */\n  caller\n    /* \"contracts/FundMe.sol\":378:398  i_owner = msg.sender */\n  0xffffffffffffffffffffffffffffffffffffffff\n  and\n  0x80\n  dup2\n  0xffffffffffffffffffffffffffffffffffffffff\n  and\n  dup2\n  mstore\n  pop\n  pop\n    /* \"contracts/FundMe.sol\":94:1205  contract FundMe {... */\n  mload(0x80)\n  codecopy(0x00, dataOffset(sub_0), dataSize(sub_0))\n  0x00\n  assignImmutable(\"0x59d26ca75eb04b47ab1bca5d789d02e4d0cf9ff8cb49c9041caeeeab4eccafbf\")\n  return(0x00, dataSize(sub_0))\nstop\n\nsub_0: assembly {\n        /* \"contracts/FundMe.sol\":94:1205  contract FundMe {... */\n      mstore(0x40, 0x80)\n      jumpi(tag_1, lt(calldatasize, 0x04))\n      shr(0xe0, calldataload(0x00))\n      dup1\n      0x3ccfd60b\n      eq\n      tag_2\n      jumpi\n      dup1\n      0x3e47d6f3\n      eq\n      tag_3\n      jumpi\n      dup1\n      0xac4bda61\n      eq\n      tag_4\n      jumpi\n      dup1\n      0xb60d4288\n      eq\n      tag_5\n      jumpi\n      dup1\n      0xdba6335f\n      eq\n      tag_6\n      jumpi\n      dup1\n      0xdc0d3dff\n      eq\n      tag_7\n      jumpi\n    tag_1:\n      0x00\n      dup1\n      revert\n        /* \"contracts/FundMe.sol\":818:1202  function withdraw() public onlyOwner {... */\n    tag_2:\n      callvalue\n      dup1\n      iszero\n      tag_8\n      jumpi\n      0x00\n      dup1\n      revert\n    tag_8:\n      pop\n      tag_9\n      tag_10\n      jump\t// in\n    tag_9:\n      stop\n        /* \"contracts/FundMe.sol\":257:313  mapping(address => uint256) public addressToAmountFunded */\n    tag_3:\n      callvalue\n      dup1\n      iszero\n      tag_11\n      jumpi\n      0x00\n      dup1\n      revert\n    tag_11:\n      pop\n      tag_12\n      0x04\n      dup1\n      calldatasize\n      sub\n      dup2\n      add\n      swap1\n      tag_13\n      swap2\n      swap1\n      tag_14\n      jump\t// in\n    tag_13:\n      tag_15\n      jump\t// in\n    tag_12:\n      mload(0x40)\n      tag_16\n      swap2\n      swap1\n      tag_17\n      jump\t// in\n    tag_16:\n      mload(0x40)\n      dup1\n      swap2\n      sub\n      swap1\n      return\n        /* \"contracts/FundMe.sol\":158:209  uint256 public constant MINIMUM_FUND_USD = 1 * 1e18 */\n    tag_4:\n      callvalue\n      dup1\n      iszero\n      tag_18\n      jumpi\n      0x00\n      dup1\n      revert\n    tag_18:\n      pop\n      tag_19\n      tag_20\n      jump\t// in\n    tag_19:\n      mload(0x40)\n      tag_21\n      swap2\n      swap1\n      tag_17\n      jump\t// in\n    tag_21:\n      mload(0x40)\n      dup1\n      swap2\n      sub\n      swap1\n      return\n        /* \"contracts/FundMe.sol\":592:810  function fund() public payable {... */\n    tag_5:\n      tag_22\n      tag_23\n      jump\t// in\n    tag_22:\n      stop\n        /* \"contracts/FundMe.sol\":216:248  address public immutable i_owner */\n    tag_6:\n      callvalue\n      dup1\n      iszero\n      tag_24\n      jumpi\n      0x00\n      dup1\n      revert\n    tag_24:\n      pop\n      tag_25\n      tag_26\n      jump\t// in\n    tag_25:\n      mload(0x40)\n      tag_27\n      swap2\n      swap1\n      tag_28\n      jump\t// in\n    tag_27:\n      mload(0x40)\n      dup1\n      swap2\n      sub\n      swap1\n      return\n        /* \"contracts/FundMe.sol\":320:344  address[] public funders */\n    tag_7:\n      callvalue\n      dup1\n      iszero\n      tag_29\n      jumpi\n      0x00\n      dup1\n      revert\n    tag_29:\n      pop\n      tag_30\n      0x04\n      dup1\n      calldatasize\n      sub\n      dup2\n      add\n      swap1\n      tag_31\n      swap2\n      swap1\n      tag_32\n      jump\t// in\n    tag_31:\n      tag_33\n      jump\t// in\n    tag_30:\n      mload(0x40)\n      tag_34\n      swap2\n      swap1\n      tag_28\n      jump\t// in\n    tag_34:\n      mload(0x40)\n      dup1\n      swap2\n      sub\n      swap1\n      return\n        /* \"contracts/FundMe.sol\":818:1202  function withdraw() public onlyOwner {... */\n    tag_10:\n        /* \"contracts/FundMe.sol\":515:522  i_owner */\n      immutable(\"0x59d26ca75eb04b47ab1bca5d789d02e4d0cf9ff8cb49c9041caeeeab4eccafbf\")\n        /* \"contracts/FundMe.sol\":501:522  msg.sender == i_owner */\n      0xffffffffffffffffffffffffffffffffffffffff\n      and\n        /* \"contracts/FundMe.sol\":501:511  msg.sender */\n      caller\n        /* \"contracts/FundMe.sol\":501:522  msg.sender == i_owner */\n      0xffffffffffffffffffffffffffffffffffffffff\n      and\n      eq\n        /* \"contracts/FundMe.sol\":493:563  require(msg.sender == i_owner, \"Only the contract owner can do that!\") */\n      tag_36\n      jumpi\n      mload(0x40)\n      0x08c379a000000000000000000000000000000000000000000000000000000000\n      dup2\n      mstore\n      0x04\n      add\n      tag_37\n      swap1\n      tag_38\n      jump\t// in\n    tag_37:\n      mload(0x40)\n      dup1\n      swap2\n      sub\n      swap1\n      revert\n    tag_36:\n        /* \"contracts/FundMe.sol\":871:880  uint256 i */\n      0x00\n        /* \"contracts/FundMe.sol\":866:1013  for (uint256 i = 0; i < funders.length; i++) {... */\n    tag_40:\n        /* \"contracts/FundMe.sol\":890:897  funders */\n      0x01\n        /* \"contracts/FundMe.sol\":890:904  funders.length */\n      dup1\n      sload\n      swap1\n      pop\n        /* \"contracts/FundMe.sol\":886:887  i */\n      dup2\n        /* \"contracts/FundMe.sol\":886:904  i < funders.length */\n      lt\n        /* \"contracts/FundMe.sol\":866:1013  for (uint256 i = 0; i < funders.length; i++) {... */\n      iszero\n      tag_41\n      jumpi\n        /* \"contracts/FundMe.sol\":926:940  address funder */\n      0x00\n        /* \"contracts/FundMe.sol\":943:950  funders */\n      0x01\n        /* \"contracts/FundMe.sol\":951:952  i */\n      dup3\n        /* \"contracts/FundMe.sol\":943:953  funders[i] */\n      dup2\n      sload\n      dup2\n      lt\n      tag_43\n      jumpi\n      tag_44\n      tag_45\n      jump\t// in\n    tag_44:\n    tag_43:\n      swap1\n      0x00\n      mstore\n      keccak256(0x00, 0x20)\n      add\n      0x00\n      swap1\n      sload\n      swap1\n      0x0100\n      exp\n      swap1\n      div\n      0xffffffffffffffffffffffffffffffffffffffff\n      and\n        /* \"contracts/FundMe.sol\":926:953  address funder = funders[i] */\n      swap1\n      pop\n        /* \"contracts/FundMe.sol\":1000:1001  0 */\n      0x00\n        /* \"contracts/FundMe.sol\":968:989  addressToAmountFunded */\n      dup1\n        /* \"contracts/FundMe.sol\":968:997  addressToAmountFunded[funder] */\n      0x00\n        /* \"contracts/FundMe.sol\":990:996  funder */\n      dup4\n        /* \"contracts/FundMe.sol\":968:997  addressToAmountFunded[funder] */\n      0xffffffffffffffffffffffffffffffffffffffff\n      and\n      0xffffffffffffffffffffffffffffffffffffffff\n      and\n      dup2\n      mstore\n      0x20\n      add\n      swap1\n      dup2\n      mstore\n      0x20\n      add\n      0x00\n      keccak256\n        /* \"contracts/FundMe.sol\":968:1001  addressToAmountFunded[funder] = 0 */\n      dup2\n      swap1\n      sstore\n      pop\n        /* \"contracts/FundMe.sol\":911:1013  {... */\n      pop\n        /* \"contracts/FundMe.sol\":906:909  i++ */\n      dup1\n      dup1\n      0x01\n      add\n      swap2\n      pop\n      pop\n        /* \"contracts/FundMe.sol\":866:1013  for (uint256 i = 0; i < funders.length; i++) {... */\n      jump(tag_40)\n    tag_41:\n      pop\n        /* \"contracts/FundMe.sol\":1047:1048  0 */\n      0x00\n        /* \"contracts/FundMe.sol\":1033:1049  new address[](0) */\n      0xffffffffffffffff\n      dup2\n      gt\n      iszero\n      tag_47\n      jumpi\n      tag_48\n      tag_49\n      jump\t// in\n    tag_48:\n    tag_47:\n      mload(0x40)\n      swap1\n      dup1\n      dup3\n      mstore\n      dup1\n      0x20\n      mul\n      0x20\n      add\n      dup3\n      add\n      0x40\n      mstore\n      dup1\n      iszero\n      tag_50\n      jumpi\n      dup2\n      0x20\n      add\n      0x20\n      dup3\n      mul\n      dup1\n      calldatasize\n      dup4\n      calldatacopy\n      dup1\n      dup3\n      add\n      swap2\n      pop\n      pop\n      swap1\n      pop\n    tag_50:\n      pop\n        /* \"contracts/FundMe.sol\":1023:1030  funders */\n      0x01\n        /* \"contracts/FundMe.sol\":1023:1049  funders = new address[](0) */\n      swap1\n      dup1\n      mload\n      swap1\n      0x20\n      add\n      swap1\n      tag_51\n      swap3\n      swap2\n      swap1\n      tag_52\n      jump\t// in\n    tag_51:\n      pop\n        /* \"contracts/FundMe.sol\":1063:1075  bool success */\n      0x00\n        /* \"contracts/FundMe.sol\":1089:1099  msg.sender */\n      caller\n        /* \"contracts/FundMe.sol\":1081:1105  payable(msg.sender).call */\n      0xffffffffffffffffffffffffffffffffffffffff\n      and\n        /* \"contracts/FundMe.sol\":1113:1134  address(this).balance */\n      selfbalance\n        /* \"contracts/FundMe.sol\":1081:1139  payable(msg.sender).call{value: address(this).balance}(\"\") */\n      mload(0x40)\n      tag_53\n      swap1\n      tag_54\n      jump\t// in\n    tag_53:\n      0x00\n      mload(0x40)\n      dup1\n      dup4\n      sub\n      dup2\n      dup6\n      dup8\n      gas\n      call\n      swap3\n      pop\n      pop\n      pop\n      returndatasize\n      dup1\n      0x00\n      dup2\n      eq\n      tag_57\n      jumpi\n      mload(0x40)\n      swap2\n      pop\n      and(add(returndatasize, 0x3f), not(0x1f))\n      dup3\n      add\n      0x40\n      mstore\n      returndatasize\n      dup3\n      mstore\n      returndatasize\n      0x00\n      0x20\n      dup5\n      add\n      returndatacopy\n      jump(tag_56)\n    tag_57:\n      0x60\n      swap2\n      pop\n    tag_56:\n      pop\n        /* \"contracts/FundMe.sol\":1062:1139  (bool success, ) = payable(msg.sender).call{value: address(this).balance}(\"\") */\n      pop\n      swap1\n      pop\n        /* \"contracts/FundMe.sol\":1158:1165  success */\n      dup1\n        /* \"contracts/FundMe.sol\":1150:1194  require(success, \"Failed to withdraw money\") */\n      tag_58\n      jumpi\n      mload(0x40)\n      0x08c379a000000000000000000000000000000000000000000000000000000000\n      dup2\n      mstore\n      0x04\n      add\n      tag_59\n      swap1\n      tag_60\n      jump\t// in\n    tag_59:\n      mload(0x40)\n      dup1\n      swap2\n      sub\n      swap1\n      revert\n    tag_58:\n        /* \"contracts/FundMe.sol\":855:1202  {... */\n      pop\n        /* \"contracts/FundMe.sol\":818:1202  function withdraw() public onlyOwner {... */\n      jump\t// out\n        /* \"contracts/FundMe.sol\":257:313  mapping(address => uint256) public addressToAmountFunded */\n    tag_15:\n      mstore(0x20, 0x00)\n      dup1\n      0x00\n      mstore\n      keccak256(0x00, 0x40)\n      0x00\n      swap2\n      pop\n      swap1\n      pop\n      sload\n      dup2\n      jump\t// out\n        /* \"contracts/FundMe.sol\":158:209  uint256 public constant MINIMUM_FUND_USD = 1 * 1e18 */\n    tag_20:\n        /* \"contracts/FundMe.sol\":201:209  1 * 1e18 */\n      0x0de0b6b3a7640000\n        /* \"contracts/FundMe.sol\":158:209  uint256 public constant MINIMUM_FUND_USD = 1 * 1e18 */\n      dup2\n      jump\t// out\n        /* \"contracts/FundMe.sol\":592:810  function fund() public payable {... */\n    tag_23:\n        /* \"contracts/FundMe.sol\":201:209  1 * 1e18 */\n      0x0de0b6b3a7640000\n        /* \"contracts/FundMe.sol\":642:671  msg.value.getConversionRate() */\n      tag_62\n        /* \"contracts/FundMe.sol\":642:651  msg.value */\n      callvalue\n        /* \"contracts/FundMe.sol\":642:669  msg.value.getConversionRate */\n      tag_63\n        /* \"contracts/FundMe.sol\":642:671  msg.value.getConversionRate() */\n      jump\t// in\n    tag_62:\n        /* \"contracts/FundMe.sol\":642:691  msg.value.getConversionRate() >= MINIMUM_FUND_USD */\n      lt\n      iszero\n        /* \"contracts/FundMe.sol\":634:710  require(msg.value.getConversionRate() >= MINIMUM_FUND_USD, \"Amount too low\") */\n      tag_64\n      jumpi\n      mload(0x40)\n      0x08c379a000000000000000000000000000000000000000000000000000000000\n      dup2\n      mstore\n      0x04\n      add\n      tag_65\n      swap1\n      tag_66\n      jump\t// in\n    tag_65:\n      mload(0x40)\n      dup1\n      swap2\n      sub\n      swap1\n      revert\n    tag_64:\n        /* \"contracts/FundMe.sol\":758:767  msg.value */\n      callvalue\n        /* \"contracts/FundMe.sol\":721:742  addressToAmountFunded */\n      0x00\n        /* \"contracts/FundMe.sol\":721:754  addressToAmountFunded[msg.sender] */\n      dup1\n        /* \"contracts/FundMe.sol\":743:753  msg.sender */\n      caller\n        /* \"contracts/FundMe.sol\":721:754  addressToAmountFunded[msg.sender] */\n      0xffffffffffffffffffffffffffffffffffffffff\n      and\n      0xffffffffffffffffffffffffffffffffffffffff\n      and\n      dup2\n      mstore\n      0x20\n      add\n      swap1\n      dup2\n      mstore\n      0x20\n      add\n      0x00\n      keccak256\n      0x00\n        /* \"contracts/FundMe.sol\":721:767  addressToAmountFunded[msg.sender] += msg.value */\n      dup3\n      dup3\n      sload\n      tag_67\n      swap2\n      swap1\n      tag_68\n      jump\t// in\n    tag_67:\n      swap3\n      pop\n      pop\n      dup2\n      swap1\n      sstore\n      pop\n        /* \"contracts/FundMe.sol\":778:785  funders */\n      0x01\n        /* \"contracts/FundMe.sol\":791:801  msg.sender */\n      caller\n        /* \"contracts/FundMe.sol\":778:802  funders.push(msg.sender) */\n      swap1\n      dup1\n      0x01\n      dup2\n      sload\n      add\n      dup1\n      dup3\n      sstore\n      dup1\n      swap2\n      pop\n      pop\n      0x01\n      swap1\n      sub\n      swap1\n      0x00\n      mstore\n      keccak256(0x00, 0x20)\n      add\n      0x00\n      swap1\n      swap2\n      swap1\n      swap2\n      swap1\n      swap2\n      0x0100\n      exp\n      dup2\n      sload\n      dup2\n      0xffffffffffffffffffffffffffffffffffffffff\n      mul\n      not\n      and\n      swap1\n      dup4\n      0xffffffffffffffffffffffffffffffffffffffff\n      and\n      mul\n      or\n      swap1\n      sstore\n      pop\n        /* \"contracts/FundMe.sol\":592:810  function fund() public payable {... */\n      jump\t// out\n        /* \"contracts/FundMe.sol\":216:248  address public immutable i_owner */\n    tag_26:\n      immutable(\"0x59d26ca75eb04b47ab1bca5d789d02e4d0cf9ff8cb49c9041caeeeab4eccafbf\")\n      dup2\n      jump\t// out\n        /* \"contracts/FundMe.sol\":320:344  address[] public funders */\n    tag_33:\n      0x01\n      dup2\n      dup2\n      sload\n      dup2\n      lt\n      tag_70\n      jumpi\n      0x00\n      dup1\n      revert\n    tag_70:\n      swap1\n      0x00\n      mstore\n      keccak256(0x00, 0x20)\n      add\n      0x00\n      swap2\n      pop\n      sload\n      swap1\n      0x0100\n      exp\n      swap1\n      div\n      0xffffffffffffffffffffffffffffffffffffffff\n      and\n      dup2\n      jump\t// out\n        /* \"contracts/PriceConverter.sol\":538:762  function getConversionRate(uint256 ethAmount) internal view returns (uint256)  {... */\n    tag_63:\n        /* \"contracts/PriceConverter.sol\":607:614  uint256 */\n      0x00\n        /* \"contracts/PriceConverter.sol\":628:644  uint256 ethPrice */\n      dup1\n        /* \"contracts/PriceConverter.sol\":647:657  getPrice() */\n      tag_73\n        /* \"contracts/PriceConverter.sol\":647:655  getPrice */\n      tag_74\n        /* \"contracts/PriceConverter.sol\":647:657  getPrice() */\n      jump\t// in\n    tag_73:\n        /* \"contracts/PriceConverter.sol\":628:657  uint256 ethPrice = getPrice() */\n      swap1\n      pop\n        /* \"contracts/PriceConverter.sol\":668:690  uint256 ethAmountInUsd */\n      0x00\n        /* \"contracts/PriceConverter.sol\":718:722  1e18 */\n      0x0de0b6b3a7640000\n        /* \"contracts/PriceConverter.sol\":706:714  ethPrice */\n      dup3\n        /* \"contracts/PriceConverter.sol\":694:703  ethAmount */\n      dup6\n        /* \"contracts/PriceConverter.sol\":694:714  ethAmount * ethPrice */\n      tag_75\n      swap2\n      swap1\n      tag_76\n      jump\t// in\n    tag_75:\n        /* \"contracts/PriceConverter.sol\":693:722  (ethAmount * ethPrice) / 1e18 */\n      tag_77\n      swap2\n      swap1\n      tag_78\n      jump\t// in\n    tag_77:\n        /* \"contracts/PriceConverter.sol\":668:722  uint256 ethAmountInUsd = (ethAmount * ethPrice) / 1e18 */\n      swap1\n      pop\n        /* \"contracts/PriceConverter.sol\":740:754  ethAmountInUsd */\n      dup1\n        /* \"contracts/PriceConverter.sol\":733:754  return ethAmountInUsd */\n      swap3\n      pop\n      pop\n      pop\n        /* \"contracts/PriceConverter.sol\":538:762  function getConversionRate(uint256 ethAmount) internal view returns (uint256)  {... */\n      swap2\n      swap1\n      pop\n      jump\t// out\n        /* \"contracts/PriceConverter.sol\":170:530  function getPrice() internal view returns (uint256) {... */\n    tag_74:\n        /* \"contracts/PriceConverter.sol\":213:220  uint256 */\n      0x00\n        /* \"contracts/PriceConverter.sol\":233:264  AggregatorV3Interface priceFeed */\n      dup1\n        /* \"contracts/PriceConverter.sol\":303:345  0x694AA1769357215DE4FAC081bf1f309aDC325306 */\n      0x694aa1769357215de4fac081bf1f309adc325306\n        /* \"contracts/PriceConverter.sol\":233:356  AggregatorV3Interface priceFeed = AggregatorV3Interface(... */\n      swap1\n      pop\n        /* \"contracts/PriceConverter.sol\":370:383  int256 answer */\n      0x00\n        /* \"contracts/PriceConverter.sol\":393:402  priceFeed */\n      dup2\n        /* \"contracts/PriceConverter.sol\":393:418  priceFeed.latestRoundData */\n      0xffffffffffffffffffffffffffffffffffffffff\n      and\n      0xfeaf968c\n        /* \"contracts/PriceConverter.sol\":393:420  priceFeed.latestRoundData() */\n      mload(0x40)\n      dup2\n      0xffffffff\n      and\n      0xe0\n      shl\n      dup2\n      mstore\n      0x04\n      add\n      0xa0\n      mload(0x40)\n      dup1\n      dup4\n      sub\n      dup2\n      dup7\n      gas\n      staticcall\n      iszero\n      dup1\n      iszero\n      tag_81\n      jumpi\n      returndatasize\n      0x00\n      dup1\n      returndatacopy\n      revert(0x00, returndatasize)\n    tag_81:\n      pop\n      pop\n      pop\n      pop\n      mload(0x40)\n      returndatasize\n      not(0x1f)\n      0x1f\n      dup3\n      add\n      and\n      dup3\n      add\n      dup1\n      0x40\n      mstore\n      pop\n      dup2\n      add\n      swap1\n      tag_82\n      swap2\n      swap1\n      tag_83\n      jump\t// in\n    tag_82:\n        /* \"contracts/PriceConverter.sol\":367:420  (, int256 answer, , , ) = priceFeed.latestRoundData() */\n      pop\n      pop\n      pop\n      swap2\n      pop\n      pop\n        /* \"contracts/PriceConverter.sol\":455:459  1e10 */\n      0x02540be400\n        /* \"contracts/PriceConverter.sol\":446:452  answer */\n      dup2\n        /* \"contracts/PriceConverter.sol\":446:459  answer * 1e10 */\n      tag_84\n      swap2\n      swap1\n      tag_85\n      jump\t// in\n    tag_84:\n        /* \"contracts/PriceConverter.sol\":431:460  return uint256(answer * 1e10) */\n      swap3\n      pop\n      pop\n      pop\n        /* \"contracts/PriceConverter.sol\":170:530  function getPrice() internal view returns (uint256) {... */\n      swap1\n      jump\t// out\n    tag_52:\n      dup3\n      dup1\n      sload\n      dup3\n      dup3\n      sstore\n      swap1\n      0x00\n      mstore\n      keccak256(0x00, 0x20)\n      swap1\n      dup2\n      add\n      swap3\n      dup3\n      iszero\n      tag_86\n      jumpi\n      swap2\n      0x20\n      mul\n      dup3\n      add\n    tag_87:\n      dup3\n      dup2\n      gt\n      iszero\n      tag_88\n      jumpi\n      dup3\n      mload\n      dup3\n      exp(0x0100, 0x00)\n      dup2\n      sload\n      dup2\n      0xffffffffffffffffffffffffffffffffffffffff\n      mul\n      not\n      and\n      swap1\n      dup4\n      0xffffffffffffffffffffffffffffffffffffffff\n      and\n      mul\n      or\n      swap1\n      sstore\n      pop\n      swap2\n      0x20\n      add\n      swap2\n      swap1\n      0x01\n      add\n      swap1\n      jump(tag_87)\n    tag_88:\n    tag_86:\n      pop\n      swap1\n      pop\n      tag_89\n      swap2\n      swap1\n      tag_90\n      jump\t// in\n    tag_89:\n      pop\n      swap1\n      jump\t// out\n    tag_90:\n    tag_91:\n      dup1\n      dup3\n      gt\n      iszero\n      tag_92\n      jumpi\n      0x00\n      dup2\n      0x00\n      swap1\n      sstore\n      pop\n      0x01\n      add\n      jump(tag_91)\n    tag_92:\n      pop\n      swap1\n      jump\t// out\n        /* \"#utility.yul\":88:205   */\n    tag_94:\n        /* \"#utility.yul\":197:198   */\n      0x00\n        /* \"#utility.yul\":194:195   */\n      dup1\n        /* \"#utility.yul\":187:199   */\n      revert\n        /* \"#utility.yul\":334:460   */\n    tag_96:\n        /* \"#utility.yul\":371:378   */\n      0x00\n        /* \"#utility.yul\":411:453   */\n      0xffffffffffffffffffffffffffffffffffffffff\n        /* \"#utility.yul\":404:409   */\n      dup3\n        /* \"#utility.yul\":400:454   */\n      and\n        /* \"#utility.yul\":389:454   */\n      swap1\n      pop\n        /* \"#utility.yul\":334:460   */\n      swap2\n      swap1\n      pop\n      jump\t// out\n        /* \"#utility.yul\":466:562   */\n    tag_97:\n        /* \"#utility.yul\":503:510   */\n      0x00\n        /* \"#utility.yul\":532:556   */\n      tag_130\n        /* \"#utility.yul\":550:555   */\n      dup3\n        /* \"#utility.yul\":532:556   */\n      tag_96\n      jump\t// in\n    tag_130:\n        /* \"#utility.yul\":521:556   */\n      swap1\n      pop\n        /* \"#utility.yul\":466:562   */\n      swap2\n      swap1\n      pop\n      jump\t// out\n        /* \"#utility.yul\":568:690   */\n    tag_98:\n        /* \"#utility.yul\":641:665   */\n      tag_132\n        /* \"#utility.yul\":659:664   */\n      dup2\n        /* \"#utility.yul\":641:665   */\n      tag_97\n      jump\t// in\n    tag_132:\n        /* \"#utility.yul\":634:639   */\n      dup2\n        /* \"#utility.yul\":631:666   */\n      eq\n        /* \"#utility.yul\":621:684   */\n      tag_133\n      jumpi\n        /* \"#utility.yul\":680:681   */\n      0x00\n        /* \"#utility.yul\":677:678   */\n      dup1\n        /* \"#utility.yul\":670:682   */\n      revert\n        /* \"#utility.yul\":621:684   */\n    tag_133:\n        /* \"#utility.yul\":568:690   */\n      pop\n      jump\t// out\n        /* \"#utility.yul\":696:835   */\n    tag_99:\n        /* \"#utility.yul\":742:747   */\n      0x00\n        /* \"#utility.yul\":780:786   */\n      dup2\n        /* \"#utility.yul\":767:787   */\n      calldataload\n        /* \"#utility.yul\":758:787   */\n      swap1\n      pop\n        /* \"#utility.yul\":796:829   */\n      tag_135\n        /* \"#utility.yul\":823:828   */\n      dup2\n        /* \"#utility.yul\":796:829   */\n      tag_98\n      jump\t// in\n    tag_135:\n        /* \"#utility.yul\":696:835   */\n      swap3\n      swap2\n      pop\n      pop\n      jump\t// out\n        /* \"#utility.yul\":841:1170   */\n    tag_14:\n        /* \"#utility.yul\":900:906   */\n      0x00\n        /* \"#utility.yul\":949:951   */\n      0x20\n        /* \"#utility.yul\":937:946   */\n      dup3\n        /* \"#utility.yul\":928:935   */\n      dup5\n        /* \"#utility.yul\":924:947   */\n      sub\n        /* \"#utility.yul\":920:952   */\n      slt\n        /* \"#utility.yul\":917:1036   */\n      iszero\n      tag_137\n      jumpi\n        /* \"#utility.yul\":955:1034   */\n      tag_138\n      tag_94\n      jump\t// in\n    tag_138:\n        /* \"#utility.yul\":917:1036   */\n    tag_137:\n        /* \"#utility.yul\":1075:1076   */\n      0x00\n        /* \"#utility.yul\":1100:1153   */\n      tag_139\n        /* \"#utility.yul\":1145:1152   */\n      dup5\n        /* \"#utility.yul\":1136:1142   */\n      dup3\n        /* \"#utility.yul\":1125:1134   */\n      dup6\n        /* \"#utility.yul\":1121:1143   */\n      add\n        /* \"#utility.yul\":1100:1153   */\n      tag_99\n      jump\t// in\n    tag_139:\n        /* \"#utility.yul\":1090:1153   */\n      swap2\n      pop\n        /* \"#utility.yul\":1046:1163   */\n      pop\n        /* \"#utility.yul\":841:1170   */\n      swap3\n      swap2\n      pop\n      pop\n      jump\t// out\n        /* \"#utility.yul\":1176:1253   */\n    tag_100:\n        /* \"#utility.yul\":1213:1220   */\n      0x00\n        /* \"#utility.yul\":1242:1247   */\n      dup2\n        /* \"#utility.yul\":1231:1247   */\n      swap1\n      pop\n        /* \"#utility.yul\":1176:1253   */\n      swap2\n      swap1\n      pop\n      jump\t// out\n        /* \"#utility.yul\":1259:1377   */\n    tag_101:\n        /* \"#utility.yul\":1346:1370   */\n      tag_142\n        /* \"#utility.yul\":1364:1369   */\n      dup2\n        /* \"#utility.yul\":1346:1370   */\n      tag_100\n      jump\t// in\n    tag_142:\n        /* \"#utility.yul\":1341:1344   */\n      dup3\n        /* \"#utility.yul\":1334:1371   */\n      mstore\n        /* \"#utility.yul\":1259:1377   */\n      pop\n      pop\n      jump\t// out\n        /* \"#utility.yul\":1383:1605   */\n    tag_17:\n        /* \"#utility.yul\":1476:1480   */\n      0x00\n        /* \"#utility.yul\":1514:1516   */\n      0x20\n        /* \"#utility.yul\":1503:1512   */\n      dup3\n        /* \"#utility.yul\":1499:1517   */\n      add\n        /* \"#utility.yul\":1491:1517   */\n      swap1\n      pop\n        /* \"#utility.yul\":1527:1598   */\n      tag_144\n        /* \"#utility.yul\":1595:1596   */\n      0x00\n        /* \"#utility.yul\":1584:1593   */\n      dup4\n        /* \"#utility.yul\":1580:1597   */\n      add\n        /* \"#utility.yul\":1571:1577   */\n      dup5\n        /* \"#utility.yul\":1527:1598   */\n      tag_101\n      jump\t// in\n    tag_144:\n        /* \"#utility.yul\":1383:1605   */\n      swap3\n      swap2\n      pop\n      pop\n      jump\t// out\n        /* \"#utility.yul\":1611:1729   */\n    tag_102:\n        /* \"#utility.yul\":1698:1722   */\n      tag_146\n        /* \"#utility.yul\":1716:1721   */\n      dup2\n        /* \"#utility.yul\":1698:1722   */\n      tag_97\n      jump\t// in\n    tag_146:\n        /* \"#utility.yul\":1693:1696   */\n      dup3\n        /* \"#utility.yul\":1686:1723   */\n      mstore\n        /* \"#utility.yul\":1611:1729   */\n      pop\n      pop\n      jump\t// out\n        /* \"#utility.yul\":1735:1957   */\n    tag_28:\n        /* \"#utility.yul\":1828:1832   */\n      0x00\n        /* \"#utility.yul\":1866:1868   */\n      0x20\n        /* \"#utility.yul\":1855:1864   */\n      dup3\n        /* \"#utility.yul\":1851:1869   */\n      add\n        /* \"#utility.yul\":1843:1869   */\n      swap1\n      pop\n        /* \"#utility.yul\":1879:1950   */\n      tag_148\n        /* \"#utility.yul\":1947:1948   */\n      0x00\n        /* \"#utility.yul\":1936:1945   */\n      dup4\n        /* \"#utility.yul\":1932:1949   */\n      add\n        /* \"#utility.yul\":1923:1929   */\n      dup5\n        /* \"#utility.yul\":1879:1950   */\n      tag_102\n      jump\t// in\n    tag_148:\n        /* \"#utility.yul\":1735:1957   */\n      swap3\n      swap2\n      pop\n      pop\n      jump\t// out\n        /* \"#utility.yul\":1963:2085   */\n    tag_103:\n        /* \"#utility.yul\":2036:2060   */\n      tag_150\n        /* \"#utility.yul\":2054:2059   */\n      dup2\n        /* \"#utility.yul\":2036:2060   */\n      tag_100\n      jump\t// in\n    tag_150:\n        /* \"#utility.yul\":2029:2034   */\n      dup2\n        /* \"#utility.yul\":2026:2061   */\n      eq\n        /* \"#utility.yul\":2016:2079   */\n      tag_151\n      jumpi\n        /* \"#utility.yul\":2075:2076   */\n      0x00\n        /* \"#utility.yul\":2072:2073   */\n      dup1\n        /* \"#utility.yul\":2065:2077   */\n      revert\n        /* \"#utility.yul\":2016:2079   */\n    tag_151:\n        /* \"#utility.yul\":1963:2085   */\n      pop\n      jump\t// out\n        /* \"#utility.yul\":2091:2230   */\n    tag_104:\n        /* \"#utility.yul\":2137:2142   */\n      0x00\n        /* \"#utility.yul\":2175:2181   */\n      dup2\n        /* \"#utility.yul\":2162:2182   */\n      calldataload\n        /* \"#utility.yul\":2153:2182   */\n      swap1\n      pop\n        /* \"#utility.yul\":2191:2224   */\n      tag_153\n        /* \"#utility.yul\":2218:2223   */\n      dup2\n        /* \"#utility.yul\":2191:2224   */\n      tag_103\n      jump\t// in\n    tag_153:\n        /* \"#utility.yul\":2091:2230   */\n      swap3\n      swap2\n      pop\n      pop\n      jump\t// out\n        /* \"#utility.yul\":2236:2565   */\n    tag_32:\n        /* \"#utility.yul\":2295:2301   */\n      0x00\n        /* \"#utility.yul\":2344:2346   */\n      0x20\n        /* \"#utility.yul\":2332:2341   */\n      dup3\n        /* \"#utility.yul\":2323:2330   */\n      dup5\n        /* \"#utility.yul\":2319:2342   */\n      sub\n        /* \"#utility.yul\":2315:2347   */\n      slt\n        /* \"#utility.yul\":2312:2431   */\n      iszero\n      tag_155\n      jumpi\n        /* \"#utility.yul\":2350:2429   */\n      tag_156\n      tag_94\n      jump\t// in\n    tag_156:\n        /* \"#utility.yul\":2312:2431   */\n    tag_155:\n        /* \"#utility.yul\":2470:2471   */\n      0x00\n        /* \"#utility.yul\":2495:2548   */\n      tag_157\n        /* \"#utility.yul\":2540:2547   */\n      dup5\n        /* \"#utility.yul\":2531:2537   */\n      dup3\n        /* \"#utility.yul\":2520:2529   */\n      dup6\n        /* \"#utility.yul\":2516:2538   */\n      add\n        /* \"#utility.yul\":2495:2548   */\n      tag_104\n      jump\t// in\n    tag_157:\n        /* \"#utility.yul\":2485:2548   */\n      swap2\n      pop\n        /* \"#utility.yul\":2441:2558   */\n      pop\n        /* \"#utility.yul\":2236:2565   */\n      swap3\n      swap2\n      pop\n      pop\n      jump\t// out\n        /* \"#utility.yul\":2571:2740   */\n    tag_105:\n        /* \"#utility.yul\":2655:2666   */\n      0x00\n        /* \"#utility.yul\":2689:2695   */\n      dup3\n        /* \"#utility.yul\":2684:2687   */\n      dup3\n        /* \"#utility.yul\":2677:2696   */\n      mstore\n        /* \"#utility.yul\":2729:2733   */\n      0x20\n        /* \"#utility.yul\":2724:2727   */\n      dup3\n        /* \"#utility.yul\":2720:2734   */\n      add\n        /* \"#utility.yul\":2705:2734   */\n      swap1\n      pop\n        /* \"#utility.yul\":2571:2740   */\n      swap3\n      swap2\n      pop\n      pop\n      jump\t// out\n        /* \"#utility.yul\":2746:2969   */\n    tag_106:\n        /* \"#utility.yul\":2886:2920   */\n      0x4f6e6c792074686520636f6e7472616374206f776e65722063616e20646f2074\n        /* \"#utility.yul\":2882:2883   */\n      0x00\n        /* \"#utility.yul\":2874:2880   */\n      dup3\n        /* \"#utility.yul\":2870:2884   */\n      add\n        /* \"#utility.yul\":2863:2921   */\n      mstore\n        /* \"#utility.yul\":2955:2961   */\n      0x6861742100000000000000000000000000000000000000000000000000000000\n        /* \"#utility.yul\":2950:2952   */\n      0x20\n        /* \"#utility.yul\":2942:2948   */\n      dup3\n        /* \"#utility.yul\":2938:2953   */\n      add\n        /* \"#utility.yul\":2931:2962   */\n      mstore\n        /* \"#utility.yul\":2746:2969   */\n      pop\n      jump\t// out\n        /* \"#utility.yul\":2975:3341   */\n    tag_107:\n        /* \"#utility.yul\":3117:3120   */\n      0x00\n        /* \"#utility.yul\":3138:3205   */\n      tag_161\n        /* \"#utility.yul\":3202:3204   */\n      0x24\n        /* \"#utility.yul\":3197:3200   */\n      dup4\n        /* \"#utility.yul\":3138:3205   */\n      tag_105\n      jump\t// in\n    tag_161:\n        /* \"#utility.yul\":3131:3205   */\n      swap2\n      pop\n        /* \"#utility.yul\":3214:3307   */\n      tag_162\n        /* \"#utility.yul\":3303:3306   */\n      dup3\n        /* \"#utility.yul\":3214:3307   */\n      tag_106\n      jump\t// in\n    tag_162:\n        /* \"#utility.yul\":3332:3334   */\n      0x40\n        /* \"#utility.yul\":3327:3330   */\n      dup3\n        /* \"#utility.yul\":3323:3335   */\n      add\n        /* \"#utility.yul\":3316:3335   */\n      swap1\n      pop\n        /* \"#utility.yul\":2975:3341   */\n      swap2\n      swap1\n      pop\n      jump\t// out\n        /* \"#utility.yul\":3347:3766   */\n    tag_38:\n        /* \"#utility.yul\":3513:3517   */\n      0x00\n        /* \"#utility.yul\":3551:3553   */\n      0x20\n        /* \"#utility.yul\":3540:3549   */\n      dup3\n        /* \"#utility.yul\":3536:3554   */\n      add\n        /* \"#utility.yul\":3528:3554   */\n      swap1\n      pop\n        /* \"#utility.yul\":3600:3609   */\n      dup2\n        /* \"#utility.yul\":3594:3598   */\n      dup2\n        /* \"#utility.yul\":3590:3610   */\n      sub\n        /* \"#utility.yul\":3586:3587   */\n      0x00\n        /* \"#utility.yul\":3575:3584   */\n      dup4\n        /* \"#utility.yul\":3571:3588   */\n      add\n        /* \"#utility.yul\":3564:3611   */\n      mstore\n        /* \"#utility.yul\":3628:3759   */\n      tag_164\n        /* \"#utility.yul\":3754:3758   */\n      dup2\n        /* \"#utility.yul\":3628:3759   */\n      tag_107\n      jump\t// in\n    tag_164:\n        /* \"#utility.yul\":3620:3759   */\n      swap1\n      pop\n        /* \"#utility.yul\":3347:3766   */\n      swap2\n      swap1\n      pop\n      jump\t// out\n        /* \"#utility.yul\":3772:3952   */\n    tag_45:\n        /* \"#utility.yul\":3820:3897   */\n      0x4e487b7100000000000000000000000000000000000000000000000000000000\n        /* \"#utility.yul\":3817:3818   */\n      0x00\n        /* \"#utility.yul\":3810:3898   */\n      mstore\n        /* \"#utility.yul\":3917:3921   */\n      0x32\n        /* \"#utility.yul\":3914:3915   */\n      0x04\n        /* \"#utility.yul\":3907:3922   */\n      mstore\n        /* \"#utility.yul\":3941:3945   */\n      0x24\n        /* \"#utility.yul\":3938:3939   */\n      0x00\n        /* \"#utility.yul\":3931:3946   */\n      revert\n        /* \"#utility.yul\":3958:4138   */\n    tag_49:\n        /* \"#utility.yul\":4006:4083   */\n      0x4e487b7100000000000000000000000000000000000000000000000000000000\n        /* \"#utility.yul\":4003:4004   */\n      0x00\n        /* \"#utility.yul\":3996:4084   */\n      mstore\n        /* \"#utility.yul\":4103:4107   */\n      0x41\n        /* \"#utility.yul\":4100:4101   */\n      0x04\n        /* \"#utility.yul\":4093:4108   */\n      mstore\n        /* \"#utility.yul\":4127:4131   */\n      0x24\n        /* \"#utility.yul\":4124:4125   */\n      0x00\n        /* \"#utility.yul\":4117:4132   */\n      revert\n        /* \"#utility.yul\":4144:4291   */\n    tag_108:\n        /* \"#utility.yul\":4245:4256   */\n      0x00\n        /* \"#utility.yul\":4282:4285   */\n      dup2\n        /* \"#utility.yul\":4267:4285   */\n      swap1\n      pop\n        /* \"#utility.yul\":4144:4291   */\n      swap3\n      swap2\n      pop\n      pop\n      jump\t// out\n        /* \"#utility.yul\":4297:4411   */\n    tag_109:\n      pop\n      jump\t// out\n        /* \"#utility.yul\":4417:4815   */\n    tag_110:\n        /* \"#utility.yul\":4576:4579   */\n      0x00\n        /* \"#utility.yul\":4597:4680   */\n      tag_170\n        /* \"#utility.yul\":4678:4679   */\n      0x00\n        /* \"#utility.yul\":4673:4676   */\n      dup4\n        /* \"#utility.yul\":4597:4680   */\n      tag_108\n      jump\t// in\n    tag_170:\n        /* \"#utility.yul\":4590:4680   */\n      swap2\n      pop\n        /* \"#utility.yul\":4689:4782   */\n      tag_171\n        /* \"#utility.yul\":4778:4781   */\n      dup3\n        /* \"#utility.yul\":4689:4782   */\n      tag_109\n      jump\t// in\n    tag_171:\n        /* \"#utility.yul\":4807:4808   */\n      0x00\n        /* \"#utility.yul\":4802:4805   */\n      dup3\n        /* \"#utility.yul\":4798:4809   */\n      add\n        /* \"#utility.yul\":4791:4809   */\n      swap1\n      pop\n        /* \"#utility.yul\":4417:4815   */\n      swap2\n      swap1\n      pop\n      jump\t// out\n        /* \"#utility.yul\":4821:5200   */\n    tag_54:\n        /* \"#utility.yul\":5005:5008   */\n      0x00\n        /* \"#utility.yul\":5027:5174   */\n      tag_173\n        /* \"#utility.yul\":5170:5173   */\n      dup3\n        /* \"#utility.yul\":5027:5174   */\n      tag_110\n      jump\t// in\n    tag_173:\n        /* \"#utility.yul\":5020:5174   */\n      swap2\n      pop\n        /* \"#utility.yul\":5191:5194   */\n      dup2\n        /* \"#utility.yul\":5184:5194   */\n      swap1\n      pop\n        /* \"#utility.yul\":4821:5200   */\n      swap2\n      swap1\n      pop\n      jump\t// out\n        /* \"#utility.yul\":5206:5380   */\n    tag_111:\n        /* \"#utility.yul\":5346:5372   */\n      0x4661696c656420746f207769746864726177206d6f6e65790000000000000000\n        /* \"#utility.yul\":5342:5343   */\n      0x00\n        /* \"#utility.yul\":5334:5340   */\n      dup3\n        /* \"#utility.yul\":5330:5344   */\n      add\n        /* \"#utility.yul\":5323:5373   */\n      mstore\n        /* \"#utility.yul\":5206:5380   */\n      pop\n      jump\t// out\n        /* \"#utility.yul\":5386:5752   */\n    tag_112:\n        /* \"#utility.yul\":5528:5531   */\n      0x00\n        /* \"#utility.yul\":5549:5616   */\n      tag_176\n        /* \"#utility.yul\":5613:5615   */\n      0x18\n        /* \"#utility.yul\":5608:5611   */\n      dup4\n        /* \"#utility.yul\":5549:5616   */\n      tag_105\n      jump\t// in\n    tag_176:\n        /* \"#utility.yul\":5542:5616   */\n      swap2\n      pop\n        /* \"#utility.yul\":5625:5718   */\n      tag_177\n        /* \"#utility.yul\":5714:5717   */\n      dup3\n        /* \"#utility.yul\":5625:5718   */\n      tag_111\n      jump\t// in\n    tag_177:\n        /* \"#utility.yul\":5743:5745   */\n      0x20\n        /* \"#utility.yul\":5738:5741   */\n      dup3\n        /* \"#utility.yul\":5734:5746   */\n      add\n        /* \"#utility.yul\":5727:5746   */\n      swap1\n      pop\n        /* \"#utility.yul\":5386:5752   */\n      swap2\n      swap1\n      pop\n      jump\t// out\n        /* \"#utility.yul\":5758:6177   */\n    tag_60:\n        /* \"#utility.yul\":5924:5928   */\n      0x00\n        /* \"#utility.yul\":5962:5964   */\n      0x20\n        /* \"#utility.yul\":5951:5960   */\n      dup3\n        /* \"#utility.yul\":5947:5965   */\n      add\n        /* \"#utility.yul\":5939:5965   */\n      swap1\n      pop\n        /* \"#utility.yul\":6011:6020   */\n      dup2\n        /* \"#utility.yul\":6005:6009   */\n      dup2\n        /* \"#utility.yul\":6001:6021   */\n      sub\n        /* \"#utility.yul\":5997:5998   */\n      0x00\n        /* \"#utility.yul\":5986:5995   */\n      dup4\n        /* \"#utility.yul\":5982:5999   */\n      add\n        /* \"#utility.yul\":5975:6022   */\n      mstore\n        /* \"#utility.yul\":6039:6170   */\n      tag_179\n        /* \"#utility.yul\":6165:6169   */\n      dup2\n        /* \"#utility.yul\":6039:6170   */\n      tag_112\n      jump\t// in\n    tag_179:\n        /* \"#utility.yul\":6031:6170   */\n      swap1\n      pop\n        /* \"#utility.yul\":5758:6177   */\n      swap2\n      swap1\n      pop\n      jump\t// out\n        /* \"#utility.yul\":6183:6347   */\n    tag_113:\n        /* \"#utility.yul\":6323:6339   */\n      0x416d6f756e7420746f6f206c6f77000000000000000000000000000000000000\n        /* \"#utility.yul\":6319:6320   */\n      0x00\n        /* \"#utility.yul\":6311:6317   */\n      dup3\n        /* \"#utility.yul\":6307:6321   */\n      add\n        /* \"#utility.yul\":6300:6340   */\n      mstore\n        /* \"#utility.yul\":6183:6347   */\n      pop\n      jump\t// out\n        /* \"#utility.yul\":6353:6719   */\n    tag_114:\n        /* \"#utility.yul\":6495:6498   */\n      0x00\n        /* \"#utility.yul\":6516:6583   */\n      tag_182\n        /* \"#utility.yul\":6580:6582   */\n      0x0e\n        /* \"#utility.yul\":6575:6578   */\n      dup4\n        /* \"#utility.yul\":6516:6583   */\n      tag_105\n      jump\t// in\n    tag_182:\n        /* \"#utility.yul\":6509:6583   */\n      swap2\n      pop\n        /* \"#utility.yul\":6592:6685   */\n      tag_183\n        /* \"#utility.yul\":6681:6684   */\n      dup3\n        /* \"#utility.yul\":6592:6685   */\n      tag_113\n      jump\t// in\n    tag_183:\n        /* \"#utility.yul\":6710:6712   */\n      0x20\n        /* \"#utility.yul\":6705:6708   */\n      dup3\n        /* \"#utility.yul\":6701:6713   */\n      add\n        /* \"#utility.yul\":6694:6713   */\n      swap1\n      pop\n        /* \"#utility.yul\":6353:6719   */\n      swap2\n      swap1\n      pop\n      jump\t// out\n        /* \"#utility.yul\":6725:7144   */\n    tag_66:\n        /* \"#utility.yul\":6891:6895   */\n      0x00\n        /* \"#utility.yul\":6929:6931   */\n      0x20\n        /* \"#utility.yul\":6918:6927   */\n      dup3\n        /* \"#utility.yul\":6914:6932   */\n      add\n        /* \"#utility.yul\":6906:6932   */\n      swap1\n      pop\n        /* \"#utility.yul\":6978:6987   */\n      dup2\n        /* \"#utility.yul\":6972:6976   */\n      dup2\n        /* \"#utility.yul\":6968:6988   */\n      sub\n        /* \"#utility.yul\":6964:6965   */\n      0x00\n        /* \"#utility.yul\":6953:6962   */\n      dup4\n        /* \"#utility.yul\":6949:6966   */\n      add\n        /* \"#utility.yul\":6942:6989   */\n      mstore\n        /* \"#utility.yul\":7006:7137   */\n      tag_185\n        /* \"#utility.yul\":7132:7136   */\n      dup2\n        /* \"#utility.yul\":7006:7137   */\n      tag_114\n      jump\t// in\n    tag_185:\n        /* \"#utility.yul\":6998:7137   */\n      swap1\n      pop\n        /* \"#utility.yul\":6725:7144   */\n      swap2\n      swap1\n      pop\n      jump\t// out\n        /* \"#utility.yul\":7150:7330   */\n    tag_115:\n        /* \"#utility.yul\":7198:7275   */\n      0x4e487b7100000000000000000000000000000000000000000000000000000000\n        /* \"#utility.yul\":7195:7196   */\n      0x00\n        /* \"#utility.yul\":7188:7276   */\n      mstore\n        /* \"#utility.yul\":7295:7299   */\n      0x11\n        /* \"#utility.yul\":7292:7293   */\n      0x04\n        /* \"#utility.yul\":7285:7300   */\n      mstore\n        /* \"#utility.yul\":7319:7323   */\n      0x24\n        /* \"#utility.yul\":7316:7317   */\n      0x00\n        /* \"#utility.yul\":7309:7324   */\n      revert\n        /* \"#utility.yul\":7336:7527   */\n    tag_68:\n        /* \"#utility.yul\":7376:7379   */\n      0x00\n        /* \"#utility.yul\":7395:7415   */\n      tag_188\n        /* \"#utility.yul\":7413:7414   */\n      dup3\n        /* \"#utility.yul\":7395:7415   */\n      tag_100\n      jump\t// in\n    tag_188:\n        /* \"#utility.yul\":7390:7415   */\n      swap2\n      pop\n        /* \"#utility.yul\":7429:7449   */\n      tag_189\n        /* \"#utility.yul\":7447:7448   */\n      dup4\n        /* \"#utility.yul\":7429:7449   */\n      tag_100\n      jump\t// in\n    tag_189:\n        /* \"#utility.yul\":7424:7449   */\n      swap3\n      pop\n        /* \"#utility.yul\":7472:7473   */\n      dup3\n        /* \"#utility.yul\":7469:7470   */\n      dup3\n        /* \"#utility.yul\":7465:7474   */\n      add\n        /* \"#utility.yul\":7458:7474   */\n      swap1\n      pop\n        /* \"#utility.yul\":7493:7496   */\n      dup1\n        /* \"#utility.yul\":7490:7491   */\n      dup3\n        /* \"#utility.yul\":7487:7497   */\n      gt\n        /* \"#utility.yul\":7484:7520   */\n      iszero\n      tag_190\n      jumpi\n        /* \"#utility.yul\":7500:7518   */\n      tag_191\n      tag_115\n      jump\t// in\n    tag_191:\n        /* \"#utility.yul\":7484:7520   */\n    tag_190:\n        /* \"#utility.yul\":7336:7527   */\n      swap3\n      swap2\n      pop\n      pop\n      jump\t// out\n        /* \"#utility.yul\":7533:7943   */\n    tag_76:\n        /* \"#utility.yul\":7573:7580   */\n      0x00\n        /* \"#utility.yul\":7596:7616   */\n      tag_193\n        /* \"#utility.yul\":7614:7615   */\n      dup3\n        /* \"#utility.yul\":7596:7616   */\n      tag_100\n      jump\t// in\n    tag_193:\n        /* \"#utility.yul\":7591:7616   */\n      swap2\n      pop\n        /* \"#utility.yul\":7630:7650   */\n      tag_194\n        /* \"#utility.yul\":7648:7649   */\n      dup4\n        /* \"#utility.yul\":7630:7650   */\n      tag_100\n      jump\t// in\n    tag_194:\n        /* \"#utility.yul\":7625:7650   */\n      swap3\n      pop\n        /* \"#utility.yul\":7685:7686   */\n      dup3\n        /* \"#utility.yul\":7682:7683   */\n      dup3\n        /* \"#utility.yul\":7678:7687   */\n      mul\n        /* \"#utility.yul\":7707:7737   */\n      tag_195\n        /* \"#utility.yul\":7725:7736   */\n      dup2\n        /* \"#utility.yul\":7707:7737   */\n      tag_100\n      jump\t// in\n    tag_195:\n        /* \"#utility.yul\":7696:7737   */\n      swap2\n      pop\n        /* \"#utility.yul\":7886:7887   */\n      dup3\n        /* \"#utility.yul\":7877:7884   */\n      dup3\n        /* \"#utility.yul\":7873:7888   */\n      div\n        /* \"#utility.yul\":7870:7871   */\n      dup5\n        /* \"#utility.yul\":7867:7889   */\n      eq\n        /* \"#utility.yul\":7847:7848   */\n      dup4\n        /* \"#utility.yul\":7840:7849   */\n      iszero\n        /* \"#utility.yul\":7820:7903   */\n      or\n        /* \"#utility.yul\":7797:7936   */\n      tag_196\n      jumpi\n        /* \"#utility.yul\":7916:7934   */\n      tag_197\n      tag_115\n      jump\t// in\n    tag_197:\n        /* \"#utility.yul\":7797:7936   */\n    tag_196:\n        /* \"#utility.yul\":7581:7943   */\n      pop\n        /* \"#utility.yul\":7533:7943   */\n      swap3\n      swap2\n      pop\n      pop\n      jump\t// out\n        /* \"#utility.yul\":7949:8129   */\n    tag_116:\n        /* \"#utility.yul\":7997:8074   */\n      0x4e487b7100000000000000000000000000000000000000000000000000000000\n        /* \"#utility.yul\":7994:7995   */\n      0x00\n        /* \"#utility.yul\":7987:8075   */\n      mstore\n        /* \"#utility.yul\":8094:8098   */\n      0x12\n        /* \"#utility.yul\":8091:8092   */\n      0x04\n        /* \"#utility.yul\":8084:8099   */\n      mstore\n        /* \"#utility.yul\":8118:8122   */\n      0x24\n        /* \"#utility.yul\":8115:8116   */\n      0x00\n        /* \"#utility.yul\":8108:8123   */\n      revert\n        /* \"#utility.yul\":8135:8320   */\n    tag_78:\n        /* \"#utility.yul\":8175:8176   */\n      0x00\n        /* \"#utility.yul\":8192:8212   */\n      tag_200\n        /* \"#utility.yul\":8210:8211   */\n      dup3\n        /* \"#utility.yul\":8192:8212   */\n      tag_100\n      jump\t// in\n    tag_200:\n        /* \"#utility.yul\":8187:8212   */\n      swap2\n      pop\n        /* \"#utility.yul\":8226:8246   */\n      tag_201\n        /* \"#utility.yul\":8244:8245   */\n      dup4\n        /* \"#utility.yul\":8226:8246   */\n      tag_100\n      jump\t// in\n    tag_201:\n        /* \"#utility.yul\":8221:8246   */\n      swap3\n      pop\n        /* \"#utility.yul\":8265:8266   */\n      dup3\n        /* \"#utility.yul\":8255:8290   */\n      tag_202\n      jumpi\n        /* \"#utility.yul\":8270:8288   */\n      tag_203\n      tag_116\n      jump\t// in\n    tag_203:\n        /* \"#utility.yul\":8255:8290   */\n    tag_202:\n        /* \"#utility.yul\":8312:8313   */\n      dup3\n        /* \"#utility.yul\":8309:8310   */\n      dup3\n        /* \"#utility.yul\":8305:8314   */\n      div\n        /* \"#utility.yul\":8300:8314   */\n      swap1\n      pop\n        /* \"#utility.yul\":8135:8320   */\n      swap3\n      swap2\n      pop\n      pop\n      jump\t// out\n        /* \"#utility.yul\":8326:8431   */\n    tag_117:\n        /* \"#utility.yul\":8362:8369   */\n      0x00\n        /* \"#utility.yul\":8402:8424   */\n      0xffffffffffffffffffff\n        /* \"#utility.yul\":8395:8400   */\n      dup3\n        /* \"#utility.yul\":8391:8425   */\n      and\n        /* \"#utility.yul\":8380:8425   */\n      swap1\n      pop\n        /* \"#utility.yul\":8326:8431   */\n      swap2\n      swap1\n      pop\n      jump\t// out\n        /* \"#utility.yul\":8437:8557   */\n    tag_118:\n        /* \"#utility.yul\":8509:8532   */\n      tag_206\n        /* \"#utility.yul\":8526:8531   */\n      dup2\n        /* \"#utility.yul\":8509:8532   */\n      tag_117\n      jump\t// in\n    tag_206:\n        /* \"#utility.yul\":8502:8507   */\n      dup2\n        /* \"#utility.yul\":8499:8533   */\n      eq\n        /* \"#utility.yul\":8489:8551   */\n      tag_207\n      jumpi\n        /* \"#utility.yul\":8547:8548   */\n      0x00\n        /* \"#utility.yul\":8544:8545   */\n      dup1\n        /* \"#utility.yul\":8537:8549   */\n      revert\n        /* \"#utility.yul\":8489:8551   */\n    tag_207:\n        /* \"#utility.yul\":8437:8557   */\n      pop\n      jump\t// out\n        /* \"#utility.yul\":8563:8704   */\n    tag_119:\n        /* \"#utility.yul\":8619:8624   */\n      0x00\n        /* \"#utility.yul\":8650:8656   */\n      dup2\n        /* \"#utility.yul\":8644:8657   */\n      mload\n        /* \"#utility.yul\":8635:8657   */\n      swap1\n      pop\n        /* \"#utility.yul\":8666:8698   */\n      tag_209\n        /* \"#utility.yul\":8692:8697   */\n      dup2\n        /* \"#utility.yul\":8666:8698   */\n      tag_118\n      jump\t// in\n    tag_209:\n        /* \"#utility.yul\":8563:8704   */\n      swap3\n      swap2\n      pop\n      pop\n      jump\t// out\n        /* \"#utility.yul\":8710:8786   */\n    tag_120:\n        /* \"#utility.yul\":8746:8753   */\n      0x00\n        /* \"#utility.yul\":8775:8780   */\n      dup2\n        /* \"#utility.yul\":8764:8780   */\n      swap1\n      pop\n        /* \"#utility.yul\":8710:8786   */\n      swap2\n      swap1\n      pop\n      jump\t// out\n        /* \"#utility.yul\":8792:8912   */\n    tag_121:\n        /* \"#utility.yul\":8864:8887   */\n      tag_212\n        /* \"#utility.yul\":8881:8886   */\n      dup2\n        /* \"#utility.yul\":8864:8887   */\n      tag_120\n      jump\t// in\n    tag_212:\n        /* \"#utility.yul\":8857:8862   */\n      dup2\n        /* \"#utility.yul\":8854:8888   */\n      eq\n        /* \"#utility.yul\":8844:8906   */\n      tag_213\n      jumpi\n        /* \"#utility.yul\":8902:8903   */\n      0x00\n        /* \"#utility.yul\":8899:8900   */\n      dup1\n        /* \"#utility.yul\":8892:8904   */\n      revert\n        /* \"#utility.yul\":8844:8906   */\n    tag_213:\n        /* \"#utility.yul\":8792:8912   */\n      pop\n      jump\t// out\n        /* \"#utility.yul\":8918:9059   */\n    tag_122:\n        /* \"#utility.yul\":8974:8979   */\n      0x00\n        /* \"#utility.yul\":9005:9011   */\n      dup2\n        /* \"#utility.yul\":8999:9012   */\n      mload\n        /* \"#utility.yul\":8990:9012   */\n      swap1\n      pop\n        /* \"#utility.yul\":9021:9053   */\n      tag_215\n        /* \"#utility.yul\":9047:9052   */\n      dup2\n        /* \"#utility.yul\":9021:9053   */\n      tag_121\n      jump\t// in\n    tag_215:\n        /* \"#utility.yul\":8918:9059   */\n      swap3\n      swap2\n      pop\n      pop\n      jump\t// out\n        /* \"#utility.yul\":9065:9208   */\n    tag_123:\n        /* \"#utility.yul\":9122:9127   */\n      0x00\n        /* \"#utility.yul\":9153:9159   */\n      dup2\n        /* \"#utility.yul\":9147:9160   */\n      mload\n        /* \"#utility.yul\":9138:9160   */\n      swap1\n      pop\n        /* \"#utility.yul\":9169:9202   */\n      tag_217\n        /* \"#utility.yul\":9196:9201   */\n      dup2\n        /* \"#utility.yul\":9169:9202   */\n      tag_103\n      jump\t// in\n    tag_217:\n        /* \"#utility.yul\":9065:9208   */\n      swap3\n      swap2\n      pop\n      pop\n      jump\t// out\n        /* \"#utility.yul\":9214:10185   */\n    tag_83:\n        /* \"#utility.yul\":9317:9323   */\n      0x00\n        /* \"#utility.yul\":9325:9331   */\n      dup1\n        /* \"#utility.yul\":9333:9339   */\n      0x00\n        /* \"#utility.yul\":9341:9347   */\n      dup1\n        /* \"#utility.yul\":9349:9355   */\n      0x00\n        /* \"#utility.yul\":9398:9401   */\n      0xa0\n        /* \"#utility.yul\":9386:9395   */\n      dup7\n        /* \"#utility.yul\":9377:9384   */\n      dup9\n        /* \"#utility.yul\":9373:9396   */\n      sub\n        /* \"#utility.yul\":9369:9402   */\n      slt\n        /* \"#utility.yul\":9366:9486   */\n      iszero\n      tag_219\n      jumpi\n        /* \"#utility.yul\":9405:9484   */\n      tag_220\n      tag_94\n      jump\t// in\n    tag_220:\n        /* \"#utility.yul\":9366:9486   */\n    tag_219:\n        /* \"#utility.yul\":9525:9526   */\n      0x00\n        /* \"#utility.yul\":9550:9613   */\n      tag_221\n        /* \"#utility.yul\":9605:9612   */\n      dup9\n        /* \"#utility.yul\":9596:9602   */\n      dup3\n        /* \"#utility.yul\":9585:9594   */\n      dup10\n        /* \"#utility.yul\":9581:9603   */\n      add\n        /* \"#utility.yul\":9550:9613   */\n      tag_119\n      jump\t// in\n    tag_221:\n        /* \"#utility.yul\":9540:9613   */\n      swap6\n      pop\n        /* \"#utility.yul\":9496:9623   */\n      pop\n        /* \"#utility.yul\":9662:9664   */\n      0x20\n        /* \"#utility.yul\":9688:9751   */\n      tag_222\n        /* \"#utility.yul\":9743:9750   */\n      dup9\n        /* \"#utility.yul\":9734:9740   */\n      dup3\n        /* \"#utility.yul\":9723:9732   */\n      dup10\n        /* \"#utility.yul\":9719:9741   */\n      add\n        /* \"#utility.yul\":9688:9751   */\n      tag_122\n      jump\t// in\n    tag_222:\n        /* \"#utility.yul\":9678:9751   */\n      swap5\n      pop\n        /* \"#utility.yul\":9633:9761   */\n      pop\n        /* \"#utility.yul\":9800:9802   */\n      0x40\n        /* \"#utility.yul\":9826:9890   */\n      tag_223\n        /* \"#utility.yul\":9882:9889   */\n      dup9\n        /* \"#utility.yul\":9873:9879   */\n      dup3\n        /* \"#utility.yul\":9862:9871   */\n      dup10\n        /* \"#utility.yul\":9858:9880   */\n      add\n        /* \"#utility.yul\":9826:9890   */\n      tag_123\n      jump\t// in\n    tag_223:\n        /* \"#utility.yul\":9816:9890   */\n      swap4\n      pop\n        /* \"#utility.yul\":9771:9900   */\n      pop\n        /* \"#utility.yul\":9939:9941   */\n      0x60\n        /* \"#utility.yul\":9965:10029   */\n      tag_224\n        /* \"#utility.yul\":10021:10028   */\n      dup9\n        /* \"#utility.yul\":10012:10018   */\n      dup3\n        /* \"#utility.yul\":10001:10010   */\n      dup10\n        /* \"#utility.yul\":9997:10019   */\n      add\n        /* \"#utility.yul\":9965:10029   */\n      tag_123\n      jump\t// in\n    tag_224:\n        /* \"#utility.yul\":9955:10029   */\n      swap3\n      pop\n        /* \"#utility.yul\":9910:10039   */\n      pop\n        /* \"#utility.yul\":10078:10081   */\n      0x80\n        /* \"#utility.yul\":10105:10168   */\n      tag_225\n        /* \"#utility.yul\":10160:10167   */\n      dup9\n        /* \"#utility.yul\":10151:10157   */\n      dup3\n        /* \"#utility.yul\":10140:10149   */\n      dup10\n        /* \"#utility.yul\":10136:10158   */\n      add\n        /* \"#utility.yul\":10105:10168   */\n      tag_119\n      jump\t// in\n    tag_225:\n        /* \"#utility.yul\":10095:10168   */\n      swap2\n      pop\n        /* \"#utility.yul\":10049:10178   */\n      pop\n        /* \"#utility.yul\":9214:10185   */\n      swap3\n      swap6\n      pop\n      swap3\n      swap6\n      swap1\n      swap4\n      pop\n      jump\t// out\n        /* \"#utility.yul\":10191:10747   */\n    tag_85:\n        /* \"#utility.yul\":10230:10237   */\n      0x00\n        /* \"#utility.yul\":10253:10272   */\n      tag_227\n        /* \"#utility.yul\":10270:10271   */\n      dup3\n        /* \"#utility.yul\":10253:10272   */\n      tag_120\n      jump\t// in\n    tag_227:\n        /* \"#utility.yul\":10248:10272   */\n      swap2\n      pop\n        /* \"#utility.yul\":10286:10305   */\n      tag_228\n        /* \"#utility.yul\":10303:10304   */\n      dup4\n        /* \"#utility.yul\":10286:10305   */\n      tag_120\n      jump\t// in\n    tag_228:\n        /* \"#utility.yul\":10281:10305   */\n      swap3\n      pop\n        /* \"#utility.yul\":10340:10341   */\n      dup3\n        /* \"#utility.yul\":10337:10338   */\n      dup3\n        /* \"#utility.yul\":10333:10342   */\n      mul\n        /* \"#utility.yul\":10362:10391   */\n      tag_229\n        /* \"#utility.yul\":10379:10390   */\n      dup2\n        /* \"#utility.yul\":10362:10391   */\n      tag_120\n      jump\t// in\n    tag_229:\n        /* \"#utility.yul\":10351:10391   */\n      swap2\n      pop\n        /* \"#utility.yul\":10449:10515   */\n      0x8000000000000000000000000000000000000000000000000000000000000000\n        /* \"#utility.yul\":10446:10447   */\n      dup5\n        /* \"#utility.yul\":10443:10516   */\n      eq\n        /* \"#utility.yul\":10439:10440   */\n      0x00\n        /* \"#utility.yul\":10436:10437   */\n      dup5\n        /* \"#utility.yul\":10432:10441   */\n      slt\n        /* \"#utility.yul\":10428:10517   */\n      and\n        /* \"#utility.yul\":10425:10540   */\n      iszero\n      tag_230\n      jumpi\n        /* \"#utility.yul\":10520:10538   */\n      tag_231\n      tag_115\n      jump\t// in\n    tag_231:\n        /* \"#utility.yul\":10425:10540   */\n    tag_230:\n        /* \"#utility.yul\":10690:10691   */\n      dup3\n        /* \"#utility.yul\":10681:10688   */\n      dup3\n        /* \"#utility.yul\":10676:10692   */\n      sdiv\n        /* \"#utility.yul\":10673:10674   */\n      dup5\n        /* \"#utility.yul\":10670:10693   */\n      eq\n        /* \"#utility.yul\":10650:10651   */\n      dup4\n        /* \"#utility.yul\":10643:10652   */\n      iszero\n        /* \"#utility.yul\":10623:10707   */\n      or\n        /* \"#utility.yul\":10600:10740   */\n      tag_232\n      jumpi\n        /* \"#utility.yul\":10720:10738   */\n      tag_233\n      tag_115\n      jump\t// in\n    tag_233:\n        /* \"#utility.yul\":10600:10740   */\n    tag_232:\n        /* \"#utility.yul\":10238:10747   */\n      pop\n        /* \"#utility.yul\":10191:10747   */\n      swap3\n      swap2\n      pop\n      pop\n      jump\t// out\n\n    auxdata: 0xa2646970667358221220cb9e03ee8931a05688325cc8470df60c5aad63d1de89423224603c3baa955ffa64736f6c634300081a0033\n}\n",
				"bytecode": {
					"linkReferences": {},
					"object": "60a0604052348015600e575f80fd5b503373ffffffffffffffffffffffffffffffffffffffff1660808173ffffffffffffffffffffffffffffffffffffffff1681525050608051610c666100625f395f818161014601526104a30152610c665ff3fe608060405260043610610054575f3560e01c80633ccfd60b146100585780633e47d6f31461006e578063ac4bda61146100aa578063b60d4288146100d4578063dba6335f146100de578063dc0d3dff14610108575b5f80fd5b348015610063575f80fd5b5061006c610144565b005b348015610079575f80fd5b50610094600480360381019061008f91906106dd565b61037a565b6040516100a19190610720565b60405180910390f35b3480156100b5575f80fd5b506100be61038e565b6040516100cb9190610720565b60405180910390f35b6100dc61039a565b005b3480156100e9575f80fd5b506100f26104a1565b6040516100ff9190610748565b60405180910390f35b348015610113575f80fd5b5061012e6004803603810190610129919061078b565b6104c5565b60405161013b9190610748565b60405180910390f35b7f000000000000000000000000000000000000000000000000000000000000000073ffffffffffffffffffffffffffffffffffffffff163373ffffffffffffffffffffffffffffffffffffffff16146101d2576040517f08c379a00000000000000000000000000000000000000000000000000000000081526004016101c990610836565b60405180910390fd5b5f5b60018054905081101561026f575f600182815481106101f6576101f5610854565b5b905f5260205f20015f9054906101000a900473ffffffffffffffffffffffffffffffffffffffff1690505f805f8373ffffffffffffffffffffffffffffffffffffffff1673ffffffffffffffffffffffffffffffffffffffff1681526020019081526020015f20819055505080806001019150506101d4565b505f67ffffffffffffffff81111561028a57610289610881565b5b6040519080825280602002602001820160405280156102b85781602001602082028036833780820191505090505b50600190805190602001906102ce9291906105dd565b505f3373ffffffffffffffffffffffffffffffffffffffff16476040516102f4906108db565b5f6040518083038185875af1925050503d805f811461032e576040519150601f19603f3d011682016040523d82523d5f602084013e610333565b606091505b5050905080610377576040517f08c379a000000000000000000000000000000000000000000000000000000000815260040161036e90610939565b60405180910390fd5b50565b5f602052805f5260405f205f915090505481565b670de0b6b3a764000081565b670de0b6b3a76400006103ac34610500565b10156103ed576040517f08c379a00000000000000000000000000000000000000000000000000000000081526004016103e4906109a1565b60405180910390fd5b345f803373ffffffffffffffffffffffffffffffffffffffff1673ffffffffffffffffffffffffffffffffffffffff1681526020019081526020015f205f82825461043891906109ec565b92505081905550600133908060018154018082558091505060019003905f5260205f20015f9091909190916101000a81548173ffffffffffffffffffffffffffffffffffffffff021916908373ffffffffffffffffffffffffffffffffffffffff160217905550565b7f000000000000000000000000000000000000000000000000000000000000000081565b600181815481106104d4575f80fd5b905f5260205f20015f915054906101000a900473ffffffffffffffffffffffffffffffffffffffff1681565b5f8061050a610538565b90505f670de0b6b3a764000082856105229190610a1f565b61052c9190610a8d565b90508092505050919050565b5f8073694aa1769357215de4fac081bf1f309adc32530690505f8173ffffffffffffffffffffffffffffffffffffffff1663feaf968c6040518163ffffffff1660e01b815260040160a060405180830381865afa15801561059b573d5f803e3d5ffd5b505050506040513d601f19601f820116820180604052508101906105bf9190610b43565b5050509150506402540be400816105d69190610bba565b9250505090565b828054828255905f5260205f20908101928215610653579160200282015b82811115610652578251825f6101000a81548173ffffffffffffffffffffffffffffffffffffffff021916908373ffffffffffffffffffffffffffffffffffffffff160217905550916020019190600101906105fb565b5b5090506106609190610664565b5090565b5b8082111561067b575f815f905550600101610665565b5090565b5f80fd5b5f73ffffffffffffffffffffffffffffffffffffffff82169050919050565b5f6106ac82610683565b9050919050565b6106bc816106a2565b81146106c6575f80fd5b50565b5f813590506106d7816106b3565b92915050565b5f602082840312156106f2576106f161067f565b5b5f6106ff848285016106c9565b91505092915050565b5f819050919050565b61071a81610708565b82525050565b5f6020820190506107335f830184610711565b92915050565b610742816106a2565b82525050565b5f60208201905061075b5f830184610739565b92915050565b61076a81610708565b8114610774575f80fd5b50565b5f8135905061078581610761565b92915050565b5f602082840312156107a05761079f61067f565b5b5f6107ad84828501610777565b91505092915050565b5f82825260208201905092915050565b7f4f6e6c792074686520636f6e7472616374206f776e65722063616e20646f20745f8201527f6861742100000000000000000000000000000000000000000000000000000000602082015250565b5f6108206024836107b6565b915061082b826107c6565b604082019050919050565b5f6020820190508181035f83015261084d81610814565b9050919050565b7f4e487b71000000000000000000000000000000000000000000000000000000005f52603260045260245ffd5b7f4e487b71000000000000000000000000000000000000000000000000000000005f52604160045260245ffd5b5f81905092915050565b50565b5f6108c65f836108ae565b91506108d1826108b8565b5f82019050919050565b5f6108e5826108bb565b9150819050919050565b7f4661696c656420746f207769746864726177206d6f6e657900000000000000005f82015250565b5f6109236018836107b6565b915061092e826108ef565b602082019050919050565b5f6020820190508181035f83015261095081610917565b9050919050565b7f416d6f756e7420746f6f206c6f770000000000000000000000000000000000005f82015250565b5f61098b600e836107b6565b915061099682610957565b602082019050919050565b5f6020820190508181035f8301526109b88161097f565b9050919050565b7f4e487b71000000000000000000000000000000000000000000000000000000005f52601160045260245ffd5b5f6109f682610708565b9150610a0183610708565b9250828201905080821115610a1957610a186109bf565b5b92915050565b5f610a2982610708565b9150610a3483610708565b9250828202610a4281610708565b91508282048414831517610a5957610a586109bf565b5b5092915050565b7f4e487b71000000000000000000000000000000000000000000000000000000005f52601260045260245ffd5b5f610a9782610708565b9150610aa283610708565b925082610ab257610ab1610a60565b5b828204905092915050565b5f69ffffffffffffffffffff82169050919050565b610adb81610abd565b8114610ae5575f80fd5b50565b5f81519050610af681610ad2565b92915050565b5f819050919050565b610b0e81610afc565b8114610b18575f80fd5b50565b5f81519050610b2981610b05565b92915050565b5f81519050610b3d81610761565b92915050565b5f805f805f60a08688031215610b5c57610b5b61067f565b5b5f610b6988828901610ae8565b9550506020610b7a88828901610b1b565b9450506040610b8b88828901610b2f565b9350506060610b9c88828901610b2f565b9250506080610bad88828901610ae8565b9150509295509295909350565b5f610bc482610afc565b9150610bcf83610afc565b9250828202610bdd81610afc565b91507f800000000000000000000000000000000000000000000000000000000000000084145f84121615610c1457610c136109bf565b5b8282058414831517610c2957610c286109bf565b5b509291505056fea2646970667358221220cb9e03ee8931a05688325cc8470df60c5aad63d1de89423224603c3baa955ffa64736f6c634300081a0033",
					"opcodes": "PUSH1 0xA0 PUSH1 0x40 MSTORE CALLVALUE DUP1 ISZERO PUSH1 0xE JUMPI PUSH0 DUP1 REVERT JUMPDEST POP CALLER PUSH20 0xFFFFFFFFFFFFFFFFFFFFFFFFFFFFFFFFFFFFFFFF AND PUSH1 0x80 DUP2 PUSH20 0xFFFFFFFFFFFFFFFFFFFFFFFFFFFFFFFFFFFFFFFF AND DUP2 MSTORE POP POP PUSH1 0x80 MLOAD PUSH2 0xC66 PUSH2 0x62 PUSH0 CODECOPY PUSH0 DUP2 DUP2 PUSH2 0x146 ADD MSTORE PUSH2 0x4A3 ADD MSTORE PUSH2 0xC66 PUSH0 RETURN INVALID PUSH1 0x80 PUSH1 0x40 MSTORE PUSH1 0x4 CALLDATASIZE LT PUSH2 0x54 JUMPI PUSH0 CALLDATALOAD PUSH1 0xE0 SHR DUP1 PUSH4 0x3CCFD60B EQ PUSH2 0x58 JUMPI DUP1 PUSH4 0x3E47D6F3 EQ PUSH2 0x6E JUMPI DUP1 PUSH4 0xAC4BDA61 EQ PUSH2 0xAA JUMPI DUP1 PUSH4 0xB60D4288 EQ PUSH2 0xD4 JUMPI DUP1 PUSH4 0xDBA6335F EQ PUSH2 0xDE JUMPI DUP1 PUSH4 0xDC0D3DFF EQ PUSH2 0x108 JUMPI JUMPDEST PUSH0 DUP1 REVERT JUMPDEST CALLVALUE DUP1 ISZERO PUSH2 0x63 JUMPI PUSH0 DUP1 REVERT JUMPDEST POP PUSH2 0x6C PUSH2 0x144 JUMP JUMPDEST STOP JUMPDEST CALLVALUE DUP1 ISZERO PUSH2 0x79 JUMPI PUSH0 DUP1 REVERT JUMPDEST POP PUSH2 0x94 PUSH1 0x4 DUP1 CALLDATASIZE SUB DUP2 ADD SWAP1 PUSH2 0x8F SWAP2 SWAP1 PUSH2 0x6DD JUMP JUMPDEST PUSH2 0x37A JUMP JUMPDEST PUSH1 0x40 MLOAD PUSH2 0xA1 SWAP2 SWAP1 PUSH2 0x720 JUMP JUMPDEST PUSH1 0x40 MLOAD DUP1 SWAP2 SUB SWAP1 RETURN JUMPDEST CALLVALUE DUP1 ISZERO PUSH2 0xB5 JUMPI PUSH0 DUP1 REVERT JUMPDEST POP PUSH2 0xBE PUSH2 0x38E JUMP JUMPDEST PUSH1 0x40 MLOAD PUSH2 0xCB SWAP2 SWAP1 PUSH2 0x720 JUMP JUMPDEST PUSH1 0x40 MLOAD DUP1 SWAP2 SUB SWAP1 RETURN JUMPDEST PUSH2 0xDC PUSH2 0x39A JUMP JUMPDEST STOP JUMPDEST CALLVALUE DUP1 ISZERO PUSH2 0xE9 JUMPI PUSH0 DUP1 REVERT JUMPDEST POP PUSH2 0xF2 PUSH2 0x4A1 JUMP JUMPDEST PUSH1 0x40 MLOAD PUSH2 0xFF SWAP2 SWAP1 PUSH2 0x748 JUMP JUMPDEST PUSH1 0x40 MLOAD DUP1 SWAP2 SUB SWAP1 RETURN JUMPDEST CALLVALUE DUP1 ISZERO PUSH2 0x113 JUMPI PUSH0 DUP1 REVERT JUMPDEST POP PUSH2 0x12E PUSH1 0x4 DUP1 CALLDATASIZE SUB DUP2 ADD SWAP1 PUSH2 0x129 SWAP2 SWAP1 PUSH2 0x78B JUMP JUMPDEST PUSH2 0x4C5 JUMP JUMPDEST PUSH1 0x40 MLOAD PUSH2 0x13B SWAP2 SWAP1 PUSH2 0x748 JUMP JUMPDEST PUSH1 0x40 MLOAD DUP1 SWAP2 SUB SWAP1 RETURN JUMPDEST PUSH32 0x0 PUSH20 0xFFFFFFFFFFFFFFFFFFFFFFFFFFFFFFFFFFFFFFFF AND CALLER PUSH20 0xFFFFFFFFFFFFFFFFFFFFFFFFFFFFFFFFFFFFFFFF AND EQ PUSH2 0x1D2 JUMPI PUSH1 0x40 MLOAD PUSH32 0x8C379A000000000000000000000000000000000000000000000000000000000 DUP2 MSTORE PUSH1 0x4 ADD PUSH2 0x1C9 SWAP1 PUSH2 0x836 JUMP JUMPDEST PUSH1 0x40 MLOAD DUP1 SWAP2 SUB SWAP1 REVERT JUMPDEST PUSH0 JUMPDEST PUSH1 0x1 DUP1 SLOAD SWAP1 POP DUP2 LT ISZERO PUSH2 0x26F JUMPI PUSH0 PUSH1 0x1 DUP3 DUP2 SLOAD DUP2 LT PUSH2 0x1F6 JUMPI PUSH2 0x1F5 PUSH2 0x854 JUMP JUMPDEST JUMPDEST SWAP1 PUSH0 MSTORE PUSH1 0x20 PUSH0 KECCAK256 ADD PUSH0 SWAP1 SLOAD SWAP1 PUSH2 0x100 EXP SWAP1 DIV PUSH20 0xFFFFFFFFFFFFFFFFFFFFFFFFFFFFFFFFFFFFFFFF AND SWAP1 POP PUSH0 DUP1 PUSH0 DUP4 PUSH20 0xFFFFFFFFFFFFFFFFFFFFFFFFFFFFFFFFFFFFFFFF AND PUSH20 0xFFFFFFFFFFFFFFFFFFFFFFFFFFFFFFFFFFFFFFFF AND DUP2 MSTORE PUSH1 0x20 ADD SWAP1 DUP2 MSTORE PUSH1 0x20 ADD PUSH0 KECCAK256 DUP2 SWAP1 SSTORE POP POP DUP1 DUP1 PUSH1 0x1 ADD SWAP2 POP POP PUSH2 0x1D4 JUMP JUMPDEST POP PUSH0 PUSH8 0xFFFFFFFFFFFFFFFF DUP2 GT ISZERO PUSH2 0x28A JUMPI PUSH2 0x289 PUSH2 0x881 JUMP JUMPDEST JUMPDEST PUSH1 0x40 MLOAD SWAP1 DUP1 DUP3 MSTORE DUP1 PUSH1 0x20 MUL PUSH1 0x20 ADD DUP3 ADD PUSH1 0x40 MSTORE DUP1 ISZERO PUSH2 0x2B8 JUMPI DUP2 PUSH1 0x20 ADD PUSH1 0x20 DUP3 MUL DUP1 CALLDATASIZE DUP4 CALLDATACOPY DUP1 DUP3 ADD SWAP2 POP POP SWAP1 POP JUMPDEST POP PUSH1 0x1 SWAP1 DUP1 MLOAD SWAP1 PUSH1 0x20 ADD SWAP1 PUSH2 0x2CE SWAP3 SWAP2 SWAP1 PUSH2 0x5DD JUMP JUMPDEST POP PUSH0 CALLER PUSH20 0xFFFFFFFFFFFFFFFFFFFFFFFFFFFFFFFFFFFFFFFF AND SELFBALANCE PUSH1 0x40 MLOAD PUSH2 0x2F4 SWAP1 PUSH2 0x8DB JUMP JUMPDEST PUSH0 PUSH1 0x40 MLOAD DUP1 DUP4 SUB DUP2 DUP6 DUP8 GAS CALL SWAP3 POP POP POP RETURNDATASIZE DUP1 PUSH0 DUP2 EQ PUSH2 0x32E JUMPI PUSH1 0x40 MLOAD SWAP2 POP PUSH1 0x1F NOT PUSH1 0x3F RETURNDATASIZE ADD AND DUP3 ADD PUSH1 0x40 MSTORE RETURNDATASIZE DUP3 MSTORE RETURNDATASIZE PUSH0 PUSH1 0x20 DUP5 ADD RETURNDATACOPY PUSH2 0x333 JUMP JUMPDEST PUSH1 0x60 SWAP2 POP JUMPDEST POP POP SWAP1 POP DUP1 PUSH2 0x377 JUMPI PUSH1 0x40 MLOAD PUSH32 0x8C379A000000000000000000000000000000000000000000000000000000000 DUP2 MSTORE PUSH1 0x4 ADD PUSH2 0x36E SWAP1 PUSH2 0x939 JUMP JUMPDEST PUSH1 0x40 MLOAD DUP1 SWAP2 SUB SWAP1 REVERT JUMPDEST POP JUMP JUMPDEST PUSH0 PUSH1 0x20 MSTORE DUP1 PUSH0 MSTORE PUSH1 0x40 PUSH0 KECCAK256 PUSH0 SWAP2 POP SWAP1 POP SLOAD DUP2 JUMP JUMPDEST PUSH8 0xDE0B6B3A7640000 DUP2 JUMP JUMPDEST PUSH8 0xDE0B6B3A7640000 PUSH2 0x3AC CALLVALUE PUSH2 0x500 JUMP JUMPDEST LT ISZERO PUSH2 0x3ED JUMPI PUSH1 0x40 MLOAD PUSH32 0x8C379A000000000000000000000000000000000000000000000000000000000 DUP2 MSTORE PUSH1 0x4 ADD PUSH2 0x3E4 SWAP1 PUSH2 0x9A1 JUMP JUMPDEST PUSH1 0x40 MLOAD DUP1 SWAP2 SUB SWAP1 REVERT JUMPDEST CALLVALUE PUSH0 DUP1 CALLER PUSH20 0xFFFFFFFFFFFFFFFFFFFFFFFFFFFFFFFFFFFFFFFF AND PUSH20 0xFFFFFFFFFFFFFFFFFFFFFFFFFFFFFFFFFFFFFFFF AND DUP2 MSTORE PUSH1 0x20 ADD SWAP1 DUP2 MSTORE PUSH1 0x20 ADD PUSH0 KECCAK256 PUSH0 DUP3 DUP3 SLOAD PUSH2 0x438 SWAP2 SWAP1 PUSH2 0x9EC JUMP JUMPDEST SWAP3 POP POP DUP2 SWAP1 SSTORE POP PUSH1 0x1 CALLER SWAP1 DUP1 PUSH1 0x1 DUP2 SLOAD ADD DUP1 DUP3 SSTORE DUP1 SWAP2 POP POP PUSH1 0x1 SWAP1 SUB SWAP1 PUSH0 MSTORE PUSH1 0x20 PUSH0 KECCAK256 ADD PUSH0 SWAP1 SWAP2 SWAP1 SWAP2 SWAP1 SWAP2 PUSH2 0x100 EXP DUP2 SLOAD DUP2 PUSH20 0xFFFFFFFFFFFFFFFFFFFFFFFFFFFFFFFFFFFFFFFF MUL NOT AND SWAP1 DUP4 PUSH20 0xFFFFFFFFFFFFFFFFFFFFFFFFFFFFFFFFFFFFFFFF AND MUL OR SWAP1 SSTORE POP JUMP JUMPDEST PUSH32 0x0 DUP2 JUMP JUMPDEST PUSH1 0x1 DUP2 DUP2 SLOAD DUP2 LT PUSH2 0x4D4 JUMPI PUSH0 DUP1 REVERT JUMPDEST SWAP1 PUSH0 MSTORE PUSH1 0x20 PUSH0 KECCAK256 ADD PUSH0 SWAP2 POP SLOAD SWAP1 PUSH2 0x100 EXP SWAP1 DIV PUSH20 0xFFFFFFFFFFFFFFFFFFFFFFFFFFFFFFFFFFFFFFFF AND DUP2 JUMP JUMPDEST PUSH0 DUP1 PUSH2 0x50A PUSH2 0x538 JUMP JUMPDEST SWAP1 POP PUSH0 PUSH8 0xDE0B6B3A7640000 DUP3 DUP6 PUSH2 0x522 SWAP2 SWAP1 PUSH2 0xA1F JUMP JUMPDEST PUSH2 0x52C SWAP2 SWAP1 PUSH2 0xA8D JUMP JUMPDEST SWAP1 POP DUP1 SWAP3 POP POP POP SWAP2 SWAP1 POP JUMP JUMPDEST PUSH0 DUP1 PUSH20 0x694AA1769357215DE4FAC081BF1F309ADC325306 SWAP1 POP PUSH0 DUP2 PUSH20 0xFFFFFFFFFFFFFFFFFFFFFFFFFFFFFFFFFFFFFFFF AND PUSH4 0xFEAF968C PUSH1 0x40 MLOAD DUP2 PUSH4 0xFFFFFFFF AND PUSH1 0xE0 SHL DUP2 MSTORE PUSH1 0x4 ADD PUSH1 0xA0 PUSH1 0x40 MLOAD DUP1 DUP4 SUB DUP2 DUP7 GAS STATICCALL ISZERO DUP1 ISZERO PUSH2 0x59B JUMPI RETURNDATASIZE PUSH0 DUP1 RETURNDATACOPY RETURNDATASIZE PUSH0 REVERT JUMPDEST POP POP POP POP PUSH1 0x40 MLOAD RETURNDATASIZE PUSH1 0x1F NOT PUSH1 0x1F DUP3 ADD AND DUP3 ADD DUP1 PUSH1 0x40 MSTORE POP DUP2 ADD SWAP1 PUSH2 0x5BF SWAP2 SWAP1 PUSH2 0xB43 JUMP JUMPDEST POP POP POP SWAP2 POP POP PUSH5 0x2540BE400 DUP2 PUSH2 0x5D6 SWAP2 SWAP1 PUSH2 0xBBA JUMP JUMPDEST SWAP3 POP POP POP SWAP1 JUMP JUMPDEST DUP3 DUP1 SLOAD DUP3 DUP3 SSTORE SWAP1 PUSH0 MSTORE PUSH1 0x20 PUSH0 KECCAK256 SWAP1 DUP2 ADD SWAP3 DUP3 ISZERO PUSH2 0x653 JUMPI SWAP2 PUSH1 0x20 MUL DUP3 ADD JUMPDEST DUP3 DUP2 GT ISZERO PUSH2 0x652 JUMPI DUP3 MLOAD DUP3 PUSH0 PUSH2 0x100 EXP DUP2 SLOAD DUP2 PUSH20 0xFFFFFFFFFFFFFFFFFFFFFFFFFFFFFFFFFFFFFFFF MUL NOT AND SWAP1 DUP4 PUSH20 0xFFFFFFFFFFFFFFFFFFFFFFFFFFFFFFFFFFFFFFFF AND MUL OR SWAP1 SSTORE POP SWAP2 PUSH1 0x20 ADD SWAP2 SWAP1 PUSH1 0x1 ADD SWAP1 PUSH2 0x5FB JUMP JUMPDEST JUMPDEST POP SWAP1 POP PUSH2 0x660 SWAP2 SWAP1 PUSH2 0x664 JUMP JUMPDEST POP SWAP1 JUMP JUMPDEST JUMPDEST DUP1 DUP3 GT ISZERO PUSH2 0x67B JUMPI PUSH0 DUP2 PUSH0 SWAP1 SSTORE POP PUSH1 0x1 ADD PUSH2 0x665 JUMP JUMPDEST POP SWAP1 JUMP JUMPDEST PUSH0 DUP1 REVERT JUMPDEST PUSH0 PUSH20 0xFFFFFFFFFFFFFFFFFFFFFFFFFFFFFFFFFFFFFFFF DUP3 AND SWAP1 POP SWAP2 SWAP1 POP JUMP JUMPDEST PUSH0 PUSH2 0x6AC DUP3 PUSH2 0x683 JUMP JUMPDEST SWAP1 POP SWAP2 SWAP1 POP JUMP JUMPDEST PUSH2 0x6BC DUP2 PUSH2 0x6A2 JUMP JUMPDEST DUP2 EQ PUSH2 0x6C6 JUMPI PUSH0 DUP1 REVERT JUMPDEST POP JUMP JUMPDEST PUSH0 DUP2 CALLDATALOAD SWAP1 POP PUSH2 0x6D7 DUP2 PUSH2 0x6B3 JUMP JUMPDEST SWAP3 SWAP2 POP POP JUMP JUMPDEST PUSH0 PUSH1 0x20 DUP3 DUP5 SUB SLT ISZERO PUSH2 0x6F2 JUMPI PUSH2 0x6F1 PUSH2 0x67F JUMP JUMPDEST JUMPDEST PUSH0 PUSH2 0x6FF DUP5 DUP3 DUP6 ADD PUSH2 0x6C9 JUMP JUMPDEST SWAP2 POP POP SWAP3 SWAP2 POP POP JUMP JUMPDEST PUSH0 DUP2 SWAP1 POP SWAP2 SWAP1 POP JUMP JUMPDEST PUSH2 0x71A DUP2 PUSH2 0x708 JUMP JUMPDEST DUP3 MSTORE POP POP JUMP JUMPDEST PUSH0 PUSH1 0x20 DUP3 ADD SWAP1 POP PUSH2 0x733 PUSH0 DUP4 ADD DUP5 PUSH2 0x711 JUMP JUMPDEST SWAP3 SWAP2 POP POP JUMP JUMPDEST PUSH2 0x742 DUP2 PUSH2 0x6A2 JUMP JUMPDEST DUP3 MSTORE POP POP JUMP JUMPDEST PUSH0 PUSH1 0x20 DUP3 ADD SWAP1 POP PUSH2 0x75B PUSH0 DUP4 ADD DUP5 PUSH2 0x739 JUMP JUMPDEST SWAP3 SWAP2 POP POP JUMP JUMPDEST PUSH2 0x76A DUP2 PUSH2 0x708 JUMP JUMPDEST DUP2 EQ PUSH2 0x774 JUMPI PUSH0 DUP1 REVERT JUMPDEST POP JUMP JUMPDEST PUSH0 DUP2 CALLDATALOAD SWAP1 POP PUSH2 0x785 DUP2 PUSH2 0x761 JUMP JUMPDEST SWAP3 SWAP2 POP POP JUMP JUMPDEST PUSH0 PUSH1 0x20 DUP3 DUP5 SUB SLT ISZERO PUSH2 0x7A0 JUMPI PUSH2 0x79F PUSH2 0x67F JUMP JUMPDEST JUMPDEST PUSH0 PUSH2 0x7AD DUP5 DUP3 DUP6 ADD PUSH2 0x777 JUMP JUMPDEST SWAP2 POP POP SWAP3 SWAP2 POP POP JUMP JUMPDEST PUSH0 DUP3 DUP3 MSTORE PUSH1 0x20 DUP3 ADD SWAP1 POP SWAP3 SWAP2 POP POP JUMP JUMPDEST PUSH32 0x4F6E6C792074686520636F6E7472616374206F776E65722063616E20646F2074 PUSH0 DUP3 ADD MSTORE PUSH32 0x6861742100000000000000000000000000000000000000000000000000000000 PUSH1 0x20 DUP3 ADD MSTORE POP JUMP JUMPDEST PUSH0 PUSH2 0x820 PUSH1 0x24 DUP4 PUSH2 0x7B6 JUMP JUMPDEST SWAP2 POP PUSH2 0x82B DUP3 PUSH2 0x7C6 JUMP JUMPDEST PUSH1 0x40 DUP3 ADD SWAP1 POP SWAP2 SWAP1 POP JUMP JUMPDEST PUSH0 PUSH1 0x20 DUP3 ADD SWAP1 POP DUP2 DUP2 SUB PUSH0 DUP4 ADD MSTORE PUSH2 0x84D DUP2 PUSH2 0x814 JUMP JUMPDEST SWAP1 POP SWAP2 SWAP1 POP JUMP JUMPDEST PUSH32 0x4E487B7100000000000000000000000000000000000000000000000000000000 PUSH0 MSTORE PUSH1 0x32 PUSH1 0x4 MSTORE PUSH1 0x24 PUSH0 REVERT JUMPDEST PUSH32 0x4E487B7100000000000000000000000000000000000000000000000000000000 PUSH0 MSTORE PUSH1 0x41 PUSH1 0x4 MSTORE PUSH1 0x24 PUSH0 REVERT JUMPDEST PUSH0 DUP2 SWAP1 POP SWAP3 SWAP2 POP POP JUMP JUMPDEST POP JUMP JUMPDEST PUSH0 PUSH2 0x8C6 PUSH0 DUP4 PUSH2 0x8AE JUMP JUMPDEST SWAP2 POP PUSH2 0x8D1 DUP3 PUSH2 0x8B8 JUMP JUMPDEST PUSH0 DUP3 ADD SWAP1 POP SWAP2 SWAP1 POP JUMP JUMPDEST PUSH0 PUSH2 0x8E5 DUP3 PUSH2 0x8BB JUMP JUMPDEST SWAP2 POP DUP2 SWAP1 POP SWAP2 SWAP1 POP JUMP JUMPDEST PUSH32 0x4661696C656420746F207769746864726177206D6F6E65790000000000000000 PUSH0 DUP3 ADD MSTORE POP JUMP JUMPDEST PUSH0 PUSH2 0x923 PUSH1 0x18 DUP4 PUSH2 0x7B6 JUMP JUMPDEST SWAP2 POP PUSH2 0x92E DUP3 PUSH2 0x8EF JUMP JUMPDEST PUSH1 0x20 DUP3 ADD SWAP1 POP SWAP2 SWAP1 POP JUMP JUMPDEST PUSH0 PUSH1 0x20 DUP3 ADD SWAP1 POP DUP2 DUP2 SUB PUSH0 DUP4 ADD MSTORE PUSH2 0x950 DUP2 PUSH2 0x917 JUMP JUMPDEST SWAP1 POP SWAP2 SWAP1 POP JUMP JUMPDEST PUSH32 0x416D6F756E7420746F6F206C6F77000000000000000000000000000000000000 PUSH0 DUP3 ADD MSTORE POP JUMP JUMPDEST PUSH0 PUSH2 0x98B PUSH1 0xE DUP4 PUSH2 0x7B6 JUMP JUMPDEST SWAP2 POP PUSH2 0x996 DUP3 PUSH2 0x957 JUMP JUMPDEST PUSH1 0x20 DUP3 ADD SWAP1 POP SWAP2 SWAP1 POP JUMP JUMPDEST PUSH0 PUSH1 0x20 DUP3 ADD SWAP1 POP DUP2 DUP2 SUB PUSH0 DUP4 ADD MSTORE PUSH2 0x9B8 DUP2 PUSH2 0x97F JUMP JUMPDEST SWAP1 POP SWAP2 SWAP1 POP JUMP JUMPDEST PUSH32 0x4E487B7100000000000000000000000000000000000000000000000000000000 PUSH0 MSTORE PUSH1 0x11 PUSH1 0x4 MSTORE PUSH1 0x24 PUSH0 REVERT JUMPDEST PUSH0 PUSH2 0x9F6 DUP3 PUSH2 0x708 JUMP JUMPDEST SWAP2 POP PUSH2 0xA01 DUP4 PUSH2 0x708 JUMP JUMPDEST SWAP3 POP DUP3 DUP3 ADD SWAP1 POP DUP1 DUP3 GT ISZERO PUSH2 0xA19 JUMPI PUSH2 0xA18 PUSH2 0x9BF JUMP JUMPDEST JUMPDEST SWAP3 SWAP2 POP POP JUMP JUMPDEST PUSH0 PUSH2 0xA29 DUP3 PUSH2 0x708 JUMP JUMPDEST SWAP2 POP PUSH2 0xA34 DUP4 PUSH2 0x708 JUMP JUMPDEST SWAP3 POP DUP3 DUP3 MUL PUSH2 0xA42 DUP2 PUSH2 0x708 JUMP JUMPDEST SWAP2 POP DUP3 DUP3 DIV DUP5 EQ DUP4 ISZERO OR PUSH2 0xA59 JUMPI PUSH2 0xA58 PUSH2 0x9BF JUMP JUMPDEST JUMPDEST POP SWAP3 SWAP2 POP POP JUMP JUMPDEST PUSH32 0x4E487B7100000000000000000000000000000000000000000000000000000000 PUSH0 MSTORE PUSH1 0x12 PUSH1 0x4 MSTORE PUSH1 0x24 PUSH0 REVERT JUMPDEST PUSH0 PUSH2 0xA97 DUP3 PUSH2 0x708 JUMP JUMPDEST SWAP2 POP PUSH2 0xAA2 DUP4 PUSH2 0x708 JUMP JUMPDEST SWAP3 POP DUP3 PUSH2 0xAB2 JUMPI PUSH2 0xAB1 PUSH2 0xA60 JUMP JUMPDEST JUMPDEST DUP3 DUP3 DIV SWAP1 POP SWAP3 SWAP2 POP POP JUMP JUMPDEST PUSH0 PUSH10 0xFFFFFFFFFFFFFFFFFFFF DUP3 AND SWAP1 POP SWAP2 SWAP1 POP JUMP JUMPDEST PUSH2 0xADB DUP2 PUSH2 0xABD JUMP JUMPDEST DUP2 EQ PUSH2 0xAE5 JUMPI PUSH0 DUP1 REVERT JUMPDEST POP JUMP JUMPDEST PUSH0 DUP2 MLOAD SWAP1 POP PUSH2 0xAF6 DUP2 PUSH2 0xAD2 JUMP JUMPDEST SWAP3 SWAP2 POP POP JUMP JUMPDEST PUSH0 DUP2 SWAP1 POP SWAP2 SWAP1 POP JUMP JUMPDEST PUSH2 0xB0E DUP2 PUSH2 0xAFC JUMP JUMPDEST DUP2 EQ PUSH2 0xB18 JUMPI PUSH0 DUP1 REVERT JUMPDEST POP JUMP JUMPDEST PUSH0 DUP2 MLOAD SWAP1 POP PUSH2 0xB29 DUP2 PUSH2 0xB05 JUMP JUMPDEST SWAP3 SWAP2 POP POP JUMP JUMPDEST PUSH0 DUP2 MLOAD SWAP1 POP PUSH2 0xB3D DUP2 PUSH2 0x761 JUMP JUMPDEST SWAP3 SWAP2 POP POP JUMP JUMPDEST PUSH0 DUP1 PUSH0 DUP1 PUSH0 PUSH1 0xA0 DUP7 DUP9 SUB SLT ISZERO PUSH2 0xB5C JUMPI PUSH2 0xB5B PUSH2 0x67F JUMP JUMPDEST JUMPDEST PUSH0 PUSH2 0xB69 DUP9 DUP3 DUP10 ADD PUSH2 0xAE8 JUMP JUMPDEST SWAP6 POP POP PUSH1 0x20 PUSH2 0xB7A DUP9 DUP3 DUP10 ADD PUSH2 0xB1B JUMP JUMPDEST SWAP5 POP POP PUSH1 0x40 PUSH2 0xB8B DUP9 DUP3 DUP10 ADD PUSH2 0xB2F JUMP JUMPDEST SWAP4 POP POP PUSH1 0x60 PUSH2 0xB9C DUP9 DUP3 DUP10 ADD PUSH2 0xB2F JUMP JUMPDEST SWAP3 POP POP PUSH1 0x80 PUSH2 0xBAD DUP9 DUP3 DUP10 ADD PUSH2 0xAE8 JUMP JUMPDEST SWAP2 POP POP SWAP3 SWAP6 POP SWAP3 SWAP6 SWAP1 SWAP4 POP JUMP JUMPDEST PUSH0 PUSH2 0xBC4 DUP3 PUSH2 0xAFC JUMP JUMPDEST SWAP2 POP PUSH2 0xBCF DUP4 PUSH2 0xAFC JUMP JUMPDEST SWAP3 POP DUP3 DUP3 MUL PUSH2 0xBDD DUP2 PUSH2 0xAFC JUMP JUMPDEST SWAP2 POP PUSH32 0x8000000000000000000000000000000000000000000000000000000000000000 DUP5 EQ PUSH0 DUP5 SLT AND ISZERO PUSH2 0xC14 JUMPI PUSH2 0xC13 PUSH2 0x9BF JUMP JUMPDEST JUMPDEST DUP3 DUP3 SDIV DUP5 EQ DUP4 ISZERO OR PUSH2 0xC29 JUMPI PUSH2 0xC28 PUSH2 0x9BF JUMP JUMPDEST JUMPDEST POP SWAP3 SWAP2 POP POP JUMP INVALID LOG2 PUSH5 0x6970667358 0x22 SLT KECCAK256 0xCB SWAP15 SUB 0xEE DUP10 BALANCE LOG0 JUMP DUP9 ORIGIN TLOAD 0xC8 SELFBALANCE 0xD 0xF6 0xC GAS 0xAD PUSH4 0xD1DE8942 ORIGIN 0x24 PUSH1 0x3C EXTCODESIZE 0xAA SWAP6 PUSH0 STATICCALL PUSH5 0x736F6C6343 STOP ADDMOD BYTE STOP CALLER "
				},
				"gasEstimates": {
					"creation": {
						"codeDepositCost": "634800",
						"executionCost": "infinite",
						"totalCost": "infinite"
					},
					"external": {
						"MINIMUM_FUND_USD()": "347",
						"addressToAmountFunded(address)": "2801",
						"fund()": "infinite",
						"funders(uint256)": "5032",
						"i_owner()": "infinite",
						"withdraw()": "infinite"
					}
				},
				"methodIdentifiers": {
					"MINIMUM_FUND_USD()": "ac4bda61",
					"addressToAmountFunded(address)": "3e47d6f3",
					"fund()": "b60d4288",
					"funders(uint256)": "dc0d3dff",
					"i_owner()": "dba6335f",
					"withdraw()": "3ccfd60b"
				}
			},
			"storageLayout": {
				"storage": [
					{
						"astId": 62,
						"contract": "contracts/FundMe.sol:FundMe",
						"label": "addressToAmountFunded",
						"offset": 0,
						"slot": "0",
						"type": "t_mapping(t_address,t_uint256)"
					},
					{
						"astId": 65,
						"contract": "contracts/FundMe.sol:FundMe",
						"label": "funders",
						"offset": 0,
						"slot": "1",
						"type": "t_array(t_address)dyn_storage"
					}
				],
				"types": {
					"t_address": {
						"encoding": "inplace",
						"label": "address",
						"numberOfBytes": "20"
					},
					"t_array(t_address)dyn_storage": {
						"base": "t_address",
						"encoding": "dynamic_array",
						"label": "address[]",
						"numberOfBytes": "32"
					},
					"t_mapping(t_address,t_uint256)": {
						"encoding": "mapping",
						"key": "t_address",
						"label": "mapping(address => uint256)",
						"numberOfBytes": "32",
						"value": "t_uint256"
					},
					"t_uint256": {
						"encoding": "inplace",
						"label": "uint256",
						"numberOfBytes": "32"
					}
				}
			},
			"userdoc": {
				"kind": "user",
				"methods": {},
				"version": 1
			}
		}
	}
}